:020000040800F2
:1000000000800120F5A8000845A9000899220008F1
:1000100045A9000845A9000845A9000800000000FE
:100020000000000000000000000000004187000800
:1000300045A9000800000000D187000835880008A5
:1000400045A9000845A9000845A9000845A90008D8
:1000500045A9000845A9000845A9000845A90008C8
:1000600045A9000845A9000845A9000845A90008B8
:1000700045A9000845A9000845A9000845A90008A8
:10008000FD20000845A900087520000845A90008C2
:1000900045A9000845A9000845A9000845A9000888
:1000A000A12000088920000845A9000845A90008EA
:1000B00045A90008DD20000845A9000845A9000859
:1000C00045A9000845A9000845A9000845A9000858
:1000D00045A9000845A900081D21000845A90008F8
:1000E000A122000845A9000845A9000845A9000863
:1000F00045A9000845A9000845A9000845A9000828
:1001000045A9000845A9000845A9000845A9000817
:1001100045A9000845A90008FD40000845A90008B8
:1001200045A9000845A9000845A9000845A90008F7
:1001300045A9000845A9000845A9000845A90008E7
:1001400045A9000845A9000845A9000845A90008D7
:1001500045A9000845A9000845A9000845A90008C7
:1001600045A9000845A9000845A9000845A90008B7
:1001700045A9000845A9000845A90008000000009D
:0801800045A9000845A900088B
:1001900010B5054C237833B9044B13B10448AFF3C1
:1001A00000800123237010BD5804002000000000CF
:1001B000BCA9000808B5034B1BB103490348AFF3C2
:1001C000008008BD000000005C040020BCA90008FD
:1001D00053B94AB9002908BF00281CBF4FF0FF31AE
:1001E0004FF0FF3000F074B9ADF1080C6DE904CEAA
:1001F00000F006F8DDF804E0DDE9022304B0704702
:100200002DE9F047089D04468E46002B4DD18A42C9
:10021000944669D9B2FA82F252B101FA02F3C2F1FC
:10022000200120FA01F10CFA02FC41EA030E94408D
:100230004FEA1C48210CBEFBF8F61FFA8CF708FBAE
:1002400016E341EA034306FB07F199420AD91CEB86
:10025000030306F1FF3080F01F81994240F21C81B8
:10026000023E63445B1AA4B2B3FBF8F008FB103300
:1002700044EA034400FB07F7A7420AD91CEB040435
:1002800000F1FF3380F00A81A74240F20781644405
:10029000023840EA0640E41B00261DB1D44000238A
:1002A000C5E900433146BDE8F0878B4209D9002DEE
:1002B00000F0EF800026C5E9000130463146BDE878
:1002C000F087B3FA83F6002E4AD18B4202D38242E2
:1002D00000F2F980841A61EB030301209E46002D91
:1002E000E0D0C5E9004EDDE702B9FFDEB2FA82F2E6
:1002F000002A40F09280A1EB0C014FEA1C471FFA44
:100300008CFE0126200CB1FBF7F307FB131140EA2A
:1003100001410EFB03F0884208D91CEB010103F1F7
:10032000FF3802D2884200F2CB804346091AA4B2B9
:10033000B1FBF7F007FB101144EA01440EFB00FE8D
:10034000A64508D91CEB040400F1FF3102D2A645F2
:1003500000F2BB800846A4EB0E0440EA03409CE791
:10036000C6F12007B34022FA07FC4CEA030C20FA3E
:1003700007F401FA06F31C43F9404FEA1C4900FA5E
:1003800006F3B1FBF9F8200C1FFA8CFE09FB1811DB
:1003900040EA014108FB0EF0884202FA06F20BD94E
:1003A0001CEB010108F1FF3A80F08880884240F29E
:1003B0008580A8F102086144091AA4B2B1FBF9F0E2
:1003C00009FB101144EA014100FB0EFE8E4508D9DD
:1003D0001CEB010100F1FF346CD28E456AD9023862
:1003E000614440EA0840A0FB0294A1EB0E01A14247
:1003F000C846A64656D353D05DB1B3EB080261EBB5
:100400000E0101FA07F722FA06F3F1401F43C5E98E
:10041000007100263146BDE8F087C2F12003D840C4
:100420000CFA02FC21FA03F3914001434FEA1C4706
:100430001FFA8CFEB3FBF7F007FB10360B0C43EAF8
:10044000064300FB0EF69E4204FA02F408D91CEBA8
:10045000030300F1FF382FD29E422DD902386344A6
:100460009B1B89B2B3FBF7F607FB163341EA034146
:1004700006FB0EF38B4208D91CEB010106F1FF3895
:1004800016D28B4214D9023E6144C91A46EA00468C
:1004900038E72E46284605E70646E3E61846F8E61E
:1004A0004B45A9D2B9EB020864EB0C0E0138A3E767
:1004B0004646EAE7204694E74046D1E7D0467BE748
:1004C000023B614432E7304609E76444023842E7C0
:1004D000704700BF0000000000B599B04422002121
:1004E00006A80AF063FA00234FF40070CDE9003348
:1004F000CDE90233049306F05BF808B172B6FEE76B
:100500009FED177B8DED107B9FED177B8DED127BA3
:100510009FED177B02234FF48071102206A80693EB
:1005200016938DED147B09910A9204F0A1FF034606
:1005300008B172B6FEE79FED107B8DED007B9FED5D
:10054000107B042168468DED027B049305F078FA58
:1005500008B172B6FEE719B05DF804FBAFF3008096
:100560000200000002000000020000001400000071
:1005700007000000020000000F0000000300000060
:10058000000000000000000080B50024A8B004F0C6
:1005900093FEFFF7A1FFCDE91A44CDE91C44AA4D13
:1005A0001E94EB6CA94843F00403EB64EB6C03F07E
:1005B00004030193019BEB6C43F00103EB64EB6CD0
:1005C00003F001030293029BEB6C43F00203EB6424
:1005D000EB6C03F00203224603934FF46041039B4C
:1005E00005F064FF4FF400524FF4041398481C9434
:1005F0001AA9CDE91A2305F057FE4FF460420123F2
:10060000CDE91A239148022202231AA9CDE91C231D
:1006100005F04AFEAB6C43F00103AB64AB6C8D4D4F
:100620000C9403F001030093342221461AA8CDE96B
:100630000D44009B0AF0BAF9874B2B604FF0200E57
:100640000123C5E903E300220023CDE91244CDE9EB
:100650001444CDE91644C5E901442C8385F82040B3
:1006600085F830406C6385F8384002260424C5E9DB
:100670000A2328466C61EE6103F090FF08B172B660
:10068000FEE70C900CA9284604F092FD074608B13D
:1006900072B6FEE7284604F0FBFD1C966F4EADF8DF
:1006A00084700823CDE91A637F231D9303232093CD
:1006B000402240231AA92846CDE91E47CDE922232E
:1006C0008DF886708DF8907004F0A6FA08B172B6B5
:1006D000FEE7634A4FF487731AA92846CDE91A2327
:1006E00004F09AFA08B172B6FEE75E4A4FF4057359
:1006F0001AA92846CDE91A2304F08EFA08B172B679
:10070000FEE74FA3D3E90023CDE9122305227F237F
:10071000CDE9142312A9042200232846CDE916238B
:1007200004F020F808B172B6FEE74F4A0C2312A974
:100730002846CDE9122304F015F8014608B172B637
:10074000FEE74A4C24221AA80AF030F9484B2360ED
:10075000204609F0CFFB024608B172B6FEE700263C
:100760003C27CDE91A671E90022600271AA92046C9
:10077000CDE91C6709F00AFC08B172B6FEE7102249
:1007800020461AA909F002FC08B172B6FEE700245F
:10079000384D109421462C221AA8CDE90C44CDE9FD
:1007A0000E44CDE91244CDE91444CDE91644CDE917
:1007B0000544CDE909440494089418940AF0F6F825
:1007C0002D4B6C60AC612B60202440F6C413C5E94E
:1007D000024328464FF480730124C5E9043406F02F
:1007E0001DF808B172B6FEE7284606F0E3F808B136
:1007F00072B6FEE7062210230CA92846CDE90C2389
:1008000006F006FA08B172B6FEE7069070220023E1
:1008100004A92846CDE9042306F0AEFC08B172B65F
:10082000FEE708AA2146284601260127CDE90867E8
:100830000A9406F031FD024600B372B6FEE700BF2F
:100840002000F014060000000010024000040048E0
:1008500000080048780400200000045040002019DF
:10086000000021430080F03E00209036DC04002090
:100870000074004080050020002C014040F2E2415D
:1008800018906020CDE912010026002712A9284601
:10089000CDE91467CDE9166706F03AFB08B172B6E8
:1008A000FEE7042212A9284606F032FB08B172B610
:1008B000FEE7082212A9284606F02AFB08B172B604
:1008C000FEE79FED657B0C2212A928468DED127B79
:1008D00006F01EFB08B172B6FEE74FF480524FF4EB
:1008E0000053CDE91E2303220023CDE920234FF03E
:1008F00000720323CDE9222324904FF400624FF4C9
:1009000080631AA92846CDE91C67CDE91A2306F0B1
:100910007DFC08B172B6FEE7514C524803F034FD3D
:10092000514A2260002340F23F62CDE91233C4E90C
:1009300001331B931D931F9321931493E260236152
:100940000322A361092601231AA920461C932093A0
:100950001A921E96229606F0B9F8034608B172B6AE
:10096000FEE7204612A91293149306F005FC08B185
:1009700072B6FEE73D4B3E4918614FF4E112C3E900
:100980000200C3E90600C3E90800C3E900121846E3
:100990000C225A6106F0CCFF054608B172B6FEE79C
:1009A00000F088F82A460821262005F055FE26206A
:1009B00005F090FE2A460821102005F04DFE10207B
:1009C00005F088FE31462A46182005F045FE18201D
:1009D00005F080FE2A460521192005F03DFE19206C
:1009E00005F078FE2A460721122005F035FE122078
:1009F00005F070FE2A4608211D2005F02DFE1D2061
:100A000005F068FE1B4C2A460821282005F024FE2C
:100A1000282005F05FFE0FCC12AE0FC694E8070049
:100A200086E80700294612A807F0E8FC124B0C34B0
:100A300018600FCC1AAE0FC694E8070086E80700CE
:100A400029461AA807F0DAFC0C4B186007F0D0FC16
:100A5000FEE700BFAFF3008070000000C309000094
:100A6000CC0500208005002000040040180600206E
:100A700000440040D8A90008A0060020A4060020D9
:100A8000034B02689A4200D0704704F02DBC00BFAF
:100A90000010004072B6FEE7044B036010B48023E0
:100AA000034C0C605DF8044B13607047A8080020ED
:100AB000A806002008B5034800F068F8BDE8084023
:100AC00000F054BCFC08002008B505F06DF8044B9C
:100AD000A3FB0030C009BDE8084005F009BE00BF17
:100AE000D34D6210014B186801F0D2B9FC08002008
:100AF000014B186801F0FEB9FC080020014B186892
:100B000001F0BAB9FC08002002207047262238B54F
:100B100000FB02F2174B00249C50054602F108012D
:100B20009818103219441344134A446052F82500AF
:100B30004C608C60C3F80640C3F80A40C3F80E400E
:100B4000214607F0BFFF0D4B214653F8250007F063
:100B5000B9FF0B4B53F8250008F0BCF9094B53F8CB
:100B6000250000F023FE29460748BDE8384002F082
:100B7000D5BD00BFC81A0020580300205403002030
:100B800060030020241B0020F01A0020002800F041
:100B900086802DE9F047DFF86C81DFF86CA1404DCD
:100BA000404E84B0002704463F48CAF8000088F849
:100BB000007008F0EBFC3D4802F040FF08F054F8EC
:100BC0003B4807F06BFF3B4809F0C4FA29683A4AF2
:100BD000384B304609F072FA384B39481E6007F03E
:100BE0005DFF344B374A36493748384E09F012FC1E
:100BF000304A2F49286808F053F92F4808F018FAAE
:100C0000334807F04BFF334807F048FF324800F005
:100C10003FFE304608F096F8304B31481B68DE60E6
:100C2000304E9E6000F034FE2F4807F001FF2F4841
:100C300008F0E0F84FF001093846FFF767FF86F843
:100C40002490286808F0D0F93061286808F0CCF9C1
:100C5000DAF800300093C0F30F403246B082244BE4
:100C6000244E29681B68304601F05CF8224B336241
:100C7000286808F0B5F93A460146304601F060F8B8
:100C80001E48F06002F028FD1D48266009F0EAF8D1
:100C900003F030FA88F8009004B0BDE8F0877047A0
:100CA00060030020A00000207C010020B40300208D
:100CB000140100202000002018030020201B002029
:100CC00040010020A8020020200200200000002097
:100CD000E8000020BC000020080300205003002092
:100CE000DC020020C81A0020EC0200209002002044
:100CF0005C0300200009002028040020F01A0020D6
:100D0000C0280020181B0020241B0020704700BFB3
:100D100010B5084C262303FB004494F8243003B19B
:100D200010BD054B53F8200008F030F9E083208215
:100D300010BD00BFC81A002060030020014B1880BE
:100D4000704700BF1A1B0020034B188880B2B0FA0E
:100D500080F04009704700BF1A1B0020014B18802B
:100D6000704700BF1E1B0020034B188880B2B0FAEA
:100D700080F04009704700BF1E1B002070B5B148CD
:100D8000B14DB24C82B0012102F0DCFC00230DF128
:100D90000601AF48ADF8063009F040FA286807F0C0
:100DA00029FF204601F072F840B10A2384F8273069
:100DB000A448012102F0F4FC02B070BD204601F00D
:100DC00063F888BB94F82730142BF1D801A252F8AD
:100DD00023F000BF9D0F0008B10D0008470F000869
:100DE000B10D0008B10D0008B10D0008290F000871
:100DF000B10D00081D0F0008B10D0008290E0008F4
:100E00000D0F0008B10D0008B10D0008B10D00086C
:100E1000B10D0008B30E00087B0E0008B10D0008EC
:100E2000B10D0008310E00080B2384F82730BFE70E
:100E300094F82630052B00F0C380FFF795FF0028BB
:100E4000B6D0834809F0C2F9824B186808F048FA16
:100E5000814B186809F092FC0020FFF757FF7F4B89
:100E6000186808F0CFF8794800F0CAFF0020FFF7B3
:100E70004FFF062384F827309AE794F82630052B95
:100E800000F09E80734E0121306800F093FC002832
:100E90008ED094F82630032B00F0B3803068002108
:100EA00008F020FB1420FFF749FF102384F82730B7
:100EB0007EE794F82630052B00F08280FFF744FF90
:100EC00000283FF475AF634D644E286808F050FA6F
:100ED000634B64493068012283F8242007F0F6FF51
:100EE0005B4809F073F90020FFF710FE5E4809F037
:100EF0002DF9002840F08E805B4809F0E7F80223C6
:100F000084F82730286800F053FC51E794F8263025
:100F1000022B7FF44DAF0023E38449E7FFF724FF62
:100F200000283FF445AFF6E794F82630052B47D06C
:100F3000494B186809F0E0FB444800F061FF0020CD
:100F4000FFF7E6FE34E794F82630052B38D0464804
:100F500009F0FCF80546444809F0E0F806460DB9EA
:100F6000002846D03B4D3D4E286808F001FA306815
:100F7000032107F0BFFF3649306807F0A7FF0020C4
:100F8000FFF7C4FD2868002108F0ACFA4FF4487060
:100F9000FFF7E4FE142384F8273009E794F826309D
:100FA00003F0FD03012B7FF403AF2A4D286890F86E
:100FB0008110B9B900F0FEFB112384F82730F7E661
:100FC000244B186808F0D4F90020FFF79FFD28682B
:100FD00007F02CFE4FF44870FFF7C0FE082384F89A
:100FE0002730E5E61946A0F8603000F0E3FB2868FA
:100FF00055E71A4B186807F0C9FF194B1E82588233
:10100000D6E60020FFF782FD286807F00FFE0023D8
:10101000E384CDE63068032107F06CFF0C493068AB
:1010200007F054FF0020FFF771FE0020FFF770FE6D
:10103000306807F0E7FF054800F0E2FE062384F879
:1010400027305FE7F01A002050030020000900203D
:1010500020000020241B00205C03002060030020EF
:10106000C81A002018030020A00000201D4B1B7888
:10107000012B00D0704770B51B4C238893B1013B06
:1010800023801A4A13889BB21BB11388013B9BB281
:101090001380174A13889BB21BB11388013B9BB284
:1010A000138070BD134DFFF769FE03F025F8294644
:1010B00051F80C0B83689847686030B129460A22C2
:1010C00051F8080B0368984710B901232380D8E72B
:1010D000284602F019FA2868EA894668A9680A23AE
:1010E000B047F2E7181B00201C1B00201A1B002031
:1010F0001E1B00209003002008B5034B1B7803B98A
:1011000008BDFFF7B3FF08BD181B00202DE9F04113
:10111000002186B03848394F394C02F00BFB394872
:1011200009F062F8384B186807F0D2FE054607F060
:1011300069FE03A90646386800F0AAF9039800F092
:10114000DDFC3146049000F04FFDB4F91010019021
:1011500003B2C91A2D4B186807F0E6FCBDF906303A
:10116000B4F91210C91A2A4B8046186807F0DCFC43
:10117000ADF80880ADF80A000299264807F016FC81
:10118000034628460FFA83F81D14029307F044FE25
:101190003146029800F06CFD01463868059100F078
:1011A00079F9039B049A23600146019B0598A4F8F2
:1011B0001680012925836260E360C4F81A00268442
:1011C00015D0154808F066FE144A1548136890F8C3
:1011D00029100133136039B90748002102F0BEFA23
:1011E000002006B0BDE8F08108F0D4FCF4E70D481B
:1011F000002200F0F9FDE4E7F01A0020241B002093
:10120000C81A00202000002060030020580300209E
:10121000540300201C000020C0280020BC2800200F
:10122000640300200009002070B5044682B078B342
:10123000274D55F8200000F00FFB264B04EB44022D
:10124000014603EB0210CA4392B2019000F0CCFDBC
:10125000019800F085FEC8B11F4B53F8240010B16F
:10126000002108F075FF55F8240000F09FFA1B4894
:1012700090F829304BBB2046FFF748FC184B53F839
:10128000240002B0BDE8704007F0D0BC02B070BDD1
:1012900014480F4D00F0CEFB0146134807F0D4FB75
:1012A0000646286800F0D8FA06F00E0640EA060165
:1012B0000E488EB200F0BEFB01460D4807F06CFDF3
:1012C00000F00E0131430348BDE708F027FDD2E7E7
:1012D000241B002000090020201B002064030020A4
:1012E00050030020DC020020EC0200200803002054
:1012F0000000002008B5064B1B78012B00D008BD6C
:101300000020FFF791FFBDE8084000F0CBBB00BF15
:10131000181B002008B5054B186808F029F8BDE82F
:10132000084003480022802100F05EBD241B0020FD
:101330000009002008B5012006F04EFFFFF7DCFE93
:10134000F9E700BF08B5012006F046FFFFF7D2FF1E
:10135000F9E700BF08B5FFF7D1FB18B9BDE80840B1
:10136000FFF7C0BBBDE80840FFF7C2BB70B44149FE
:10137000414BCB6140228FB0CA61CB61CB690D93E9
:1013800080223E4B0D98CB61CA61CB61CB690C9337
:101390004FF090423A4B0C9CD3614FF48070D06177
:1013A000D361D3690B934FF400704FF481330B9CDE
:1013B000D361D061D361D069324B0A904FF480542D
:1013C0004FF488300A9DD861DC61D861D8690990F2
:1013D0004FF480644FF48230099DD061D461D061B4
:1013E000D06908904FF480444FF4A030089DD86134
:1013F000DC61D861D86907904FF400544FF4903005
:10140000079DD861DC61D861D86906904FF400442B
:101410004FF4C030069DD861DC61D861D869059071
:101420004FF0011401260598DC61DE61DC61D869AA
:10143000049004981448D8610225DD61D861DB6905
:101440000393039BD461D661D461D3690293029B59
:10145000D061D561D061D369019310220B4B019803
:10146000CB61CA61CB61CB690093009B0FB070BCAC
:10147000704700BF000800484000010080000100E4
:1014800000010100000400480200010010000100FA
:101490000368184730B5B0F872C0B0F84E3083B06A
:1014A0000A1401910CFB02F209B2C2EBC27203FBF7
:1014B00001F101EB4203C1EB4201540003EBD37E87
:1014C00001EBD1725D1C4FEA6E0E4FEA6202C0F270
:1014D00094804D1C5FDBBEEB020E44BF0EF57F3ED9
:1014E0000EF2FF3E0029B8BF01F57F314FF0010435
:1014F000B8BF01F2FF31002BB8BF03F57F3380F88E
:101500007C404FEA9C0C90F887400CEBAE42B8BF91
:1015100003F2FF3302EBA141A2EBA343002C40F006
:101520009780A0F85810A0F85A20A0F85C30B0F8C6
:10153000704022EAE27221EAE17123EAE37392B297
:1015400089B29BB2012CA0F85020A0F85210A0F84C
:1015500054301BD1B0F96240002CB0F87440CCBFBD
:101560001219121B92B2A0F85020B0F96420002A80
:10157000B0F96620CCBF0919091B002A89B2CCBF7B
:101580001B191B1BA0F85210A0F85430436903B07C
:10159000BDE830401847002C40F38C80B4EB020EBD
:1015A00044BF0EF57F3E0EF2FF3E0029B8BF01F5A5
:1015B0007F314FF00003B8BF01F2FF3180F87C307B
:1015C0004FEA9C0C231EB8BF03F5FF330CEBAE4271
:1015D00090F87F4002EBA141B8BF03F2FF13A1EBEB
:1015E000634324B990F88740002C00F0D4806D4C00
:1015F00084650024A0F85C4099E74D1CC0F285800A
:10160000002C2BDDBEEB040E44BF0EF57F3E0EF228
:10161000FF3E002B4FF00202B8BF03F57F334FEAC5
:101620009C0C80F87C20B8BF03F2FF330CEBAE4279
:1016300090F88750A2EBA34303EB6441002D00F028
:1016400095804FF4003484650124A0F85C406EE777
:10165000022484650124A0F85C4068E7B4EB020E24
:1016600044BF0EF57F3E0EF2FF3E0029B8BF01F5E4
:101670007F314FF00303B8BF01F2FF3180F87C30B7
:101680004FEA9C0C231EB8BF03F5FF330CEBAE42B0
:1016900090F8874002EBA141B8BF03F2FF13A1EB22
:1016A0006343002C70D04FF4803484650224A0F88A
:1016B0005C403CE7BEEB040E44BF0EF57F3E0EF2ED
:1016C000FF3E002BB8BF03F57F334FF00502B8BFD4
:1016D00003F2FF334FEA9C0C211EB8BF01F5FF3126
:1016E00080F87C2090F887400CEBAE42A2EBA3433D
:1016F000B8BF01F2FF1103EB6141002C3DD02A4C31
:1017000084650024A0F85C4011E7BEEB020E44BFE4
:101710000EF57F3E0EF2FF3E0029B8BF01F57F3186
:101720004FF00404B8BF01F2FF31002BB8BF03F53E
:101730007F3380F87C404FEA9C0C90F887400CEB9C
:10174000AE42B8BF03F2FF3302EBA141A2EBA343C9
:101750002CB1012484650224A0F85C40E7E6A0F8DF
:101760005830A0F85A20A0F85C10E0E6A0F8581015
:10177000A0F85A30A0F85C20D9E6A0F85820A0F8CC
:101780005A30A0F85C10D2E6A0F85830A0F85A10F1
:10179000A0F85C20CBE6A0F85820A0F85A10A0F8DA
:1017A0005C30C4E6020001000100020043681847F3
:1017B0008368184710B5044682B099B1012902D058
:1017C000002002B010BDB0F860309BB1013B9BB26D
:1017D0000191A0F86030002BF2D1C36898470199BD
:1017E0000846EEE7FFF7E2FF2046E368984701204E
:1017F00002B010BD084602B010BD00BF90F88530A1
:101800001BB990F87D30022B04D0012380F884307E
:101810007A307047D0E90F2110B4436CB0F84840DB
:101820009462B0F84A40B0F84C208C629A6201236E
:1018300080F884305DF8044B7A3070474A6C034678
:101840004FF0010C42F480624A647A3083F883C01E
:1018500083F885C0704700BF90F88330B3B1002390
:1018600080F883304221022390F882201AB10023AD
:1018700080F882300B4690F884202AB143F48063CC
:1018800000229BB280F88420184670474021EBE785
:1018900066490B6870B5002B30D090F804C01A79F7
:1018A00094451ED04C68002C00F0A380227962453C
:1018B0004FF0FF032BD08C68002C00F0868022793B
:1018C00062452AD0CC68002C00F0888022796245DD
:1018D00000F08980032B88BFFF2340F298800373B8
:1018E00070BD02681B689A421DD04C68002CDDD187
:1018F0008C68002C00F090800123E0E74C68002CFD
:1019000000F0838090F804C022796245D3D1246826
:1019100002689442CFD1012306E024680268944211
:10192000D0D1022300E0002341F823009168404C0D
:101930000025C90744F8335013D45168042421F01A
:101940000401516014605168202421F0200151608D
:101950001460916821F0004121F03F0141F0010144
:101960009160116B21F00F0111630479092C1ED8CD
:1019700004EB4405A10641EA0551012505FA04F4EA
:101980002143CC0D04F0040402F114058668625969
:10199000C1F304514FF0070E06FA01FC0EFA01F1F3
:1019A00022EA010141EA0C016151037370BD032178
:1019B0006FF01D0511FB04550121A14041EA0551BD
:1019C00041EA846141F00071DBE7042B17D9CC6850
:1019D00014B1237963451CD00268A2E7042B026886
:1019E000A2D90323A0E70268246894427FF472AF6F
:1019F000F7E701238C681CB190F804C05FE7234629
:101A0000CC6824B190F804C060E72346F2E702688E
:101A10008AE702680223E7E7CC68002C3FF47BAF3B
:101A20002379634508BF0123DED074E7501B0020F3
:101A3000281B0020027B1A4B53F8223019791A68B0
:101A400009291FD801EB410C8B06012043EA0C53F6
:101A500000FA01F10B43116B1B0D03F4F86321F441
:101A6000F8610B431363136C936823F0004323F076
:101A70003F0343F00403936013685B07FCD5106CCD
:101A800080B2704703206FF01D0C012310FB01C0D2
:101A90008B4043EA005343EA816343F00073DAE783
:101AA000501B0020114B2DE9F0411C681CB1104D5A
:101AB0002B78012B01D0BDE8F0812046277BFFF772
:101AC000B9FF0C4B188002232B700B4B53F8376077
:101AD0000146002EEFD003EBC70320465A680023CF
:101AE0002B703346BDE8F041184700BF481B00206B
:101AF0004C1B00204E1B0020281B002044F6E61142
:101B000003B213FB01F2C0F30F4010FB01F150428E
:101B1000A0EB4100B0F1804F84B005DAC11311F59C
:101B2000004F0CDA094A01E047F6FF729BB2002031
:101B300063F30F0093B263F31F4004B07047034890
:101B40000AB28242B8BF0246F0E700BF0180FFFF41
:101B500000F50040C0F3891000F44071B1F5007F3A
:101B600082B028D04FF000031A4616D861B3B1F501
:101B7000807F09D1C0B2C2431A49D2B231F91030C4
:101B800031F81220524212B29BB2002063F30F00D0
:101B900092B262F31F4002B07047B1F5407FF3D1BB
:101BA0001049C0B2C24331F81030D2B25B4231F9B1
:101BB00012201BB2E8E7C0B2C3430A49DBB231F9D5
:101BC000102031F91330DFE7C0B2C3430549DBB25F
:101BD00031F8102031F8133052425B4212B21BB27E
:101BE000D2E700BF28AA000830B585B003460546F5
:101BF00008461C140193FFF7ABFF2DB20FFA80FCCF
:101C0000031405FB0CF104FB1311B1F1804F05DA4D
:101C1000CA1312F5004F22DA144901E047F6FF71AA
:101C20000CFB04F405FB0344B4F1804F4FEAE432AB
:101C300004DA12F5004F0CDA0C4B01E047F6FF73A3
:101C40008AB2002062F30F009BB263F31F4005B01D
:101C500030BD064813B28342B8BF0346F0E70349DC
:101C600012B29142B8BF1146DAE700BF0180FFFF10
:101C700030B585B00446054608460194FFF768FF75
:101C8000241402142DB200B204FB02F305FB00334E
:101C900000FB04F405FB1244C3F3CF33002063F3CD
:101CA0000F00C4F3CF3464F31F4005B030BD00BF54
:101CB000031E35DDB3F5001F2BDD5A1302F500526C
:101CC0005210B2F5005F29D093FBF2F11144B2EB50
:101CD000610F4FEA610024D093FBF0F20244B0EBB5
:101CE000620F4FEA62011CD093FBF1F20A44B1EBA0
:101CF000620F4FEA620014D093FBF0F20244B0EBA3
:101D0000620F4FEA62010CD093FBF1F008444010DF
:101D10007047DA1180325210802AD5D110467047B0
:101D200000207047016003610021009B4260C0E910
:101D3000091183600175C0F8161080F82C107047E7
:101D40004FF0010C40F2013380F814C0C18282844C
:101D5000838570474FF0020C40F2014380F814C0B5
:101D6000018382848385704782B0032240F201435D
:101D70000275C0F81A10838502B0704710B5436829
:101D80002DED028B002283F8242082B004460068E7
:101D9000B0EE608AF0EE408A07F09AF807F036F865
:101DA000B5EEC08AF1EE10FA019015DD07EE900A4B
:101DB0009FED0C7A2069F8EEE77AB0EE481A87EECC
:101DC000870A78EEC00A08F055FB042384F82D300A
:101DD00002B0BDEC028B10BD2069B0EE680A08F0BD
:101DE000B7FBF2E783F92246038DB0F82AC00B4314
:101DF00023EA020341EA0C0103854185704700BFD5
:101E000090F82C30012B00D0704710B5027D022ACB
:101E1000044607D0032A28D0012A17D0032384F8C8
:101E20002C3010BD4368002283F824200068042170
:101E300007F060F8A28CB4F91810206807F05EF87B
:101E40000028EBD0022384F82C3010BD4368002218
:101E500083F824200068032107F04CF8A28CB4F921
:101E60001610206807F04AF8EAE7426882F8243042
:101E7000D0F81A301361E5E790F82700704700BFEB
:101E8000006908F015BD00BF408D7047008D704798
:101E900010B50446FFF7F0FF08B1002010BD204642
:101EA000FFF7F2FF0028F8D12046FFF7EFFF0028E8
:101EB000F3D1012084F8260084F82C0010BD00BF67
:101EC00010B50446FFF7D8FF08B1012010BD204629
:101ED000FFF7DAFF0028F8D12046FFF7D7FF0028E8
:101EE000F3D10122A16884F8262084F82C2081F8FF
:101EF000810010BD38B50546FFF7BEFF50B1B0F107
:101F00000C04284618BF0124FFF7BEFF40B100248F
:101F1000204638BD04462846FFF7B6FF0028F6D114
:101F20002846FFF7B3FF0028F1D1002CEFD005239E
:101F300085F82630ECE700BF10B50446FFF79CFF9C
:101F40000B2801D0002010BD2046FFF79FFF00287E
:101F5000F8D1022384F826306085012010BD00BF2F
:101F6000438D008D43EA0040704700BF90F82D007C
:101F7000704700BFB0F91600704700BFB0F91800F5
:101F8000704700BF808C7047006806F0FBBF00BF41
:101F900008B5006806F09CFFBDE8084006F038BFB1
:101FA000006806F09FBF00BF42681068002382B23D
:101FB00062F30F03000C60F31F4382B0184602B0B7
:101FC000704700BF42685068002382B262F30F037B
:101FD000000C60F31F4382B0184602B0704700BF88
:101FE0004268D068002382B262F30F03000C60F3F2
:101FF0001F4382B0184602B0704700BF42681069A4
:10200000002382B262F30F03000C60F31F4382B01F
:10201000184602B0704700BF4268D2F8160000238D
:1020200082B262F30F03000C60F31F4382B01846C4
:1020300002B070474268D2F81A00002382B262F3FD
:102040000F03000C60F31F4382B0184602B07047C4
:102050004368B3F91E00704710B5D0E9000406F0DC
:10206000C3FFC0F30F432082638210BDC06801F03C
:1020700055BB00BF034B1A68520644BF40221A608A
:10208000FFF744B800000450034B04486FF001020E
:102090001A6107F0F7BB00BF002C01407C01002053
:1020A00008B50C4B1A69120605D56FF080020A4874
:1020B0001A61FFF7A3FB07490B69DB0505D56FF430
:1020C000807305480B61FFF7B9FBBDE80840FEF7D8
:1020D000CDBF00BF002C01407C0100200648036AF0
:1020E000DA68D10702D51A69D20700D470476FF0B9
:1020F00001021A6108F084B920000020054B1A681B
:10210000920200D470474FF4001203485A6001F065
:1021100099BF00BF00000240B40300205A4BDA69A7
:10212000520657D559495A48D1F8802010B522F0A7
:1021300001024024C1F880201C6201F0E3FD524BF3
:10214000DA69100767D5504B9A68D40713D50E216A
:10215000504A196252E8003F23F0010342E800317F
:102160000029F7D1484A52E8003F43F0100342E803
:1021700000310029F7D1444AD369DB0659D51368E9
:10218000D80656D552E8003F23F0100342E800314C
:102190000029F7D13F4B53E8002F42F0010243E8FA
:1021A00000210029F7D153E8002F22F0400243E834
:1021B00000210029F7D1344A928C53E8002F42F0D5
:1021C000400243E800210029F7D1BDE81040304823
:1021D00001F086BF2C4BDA69110723D52A4B9A6888
:1021E000D20713D50E212B4A196252E8003F23F083
:1021F000010342E800310029F7D1234A52E8003FA9
:1022000043F0100342E800310029F7D11E4AD36998
:10221000D9060FD47047DA69910794D4DB695A075D
:1022200091D4A8E7DA699207D8D4DB695807D5D4E6
:10223000ECE710BD1368DB0625D552E8003F23F01C
:10224000100342E800310029F7D1124B53E8002F68
:1022500042F0010243E800210029F7D153E8002FA2
:1022600022F0400243E800210029F7D1064A928C6F
:1022700053E8002F42F0400243E800210029F7D143
:10228000034801F02DBF70470044004000000240A9
:10229000B40300200844004008B5FFF73BF8FEE710
:1022A000044B5A69920400D470474FF400525A61AB
:1022B000FFF750B80004014010B582B00839BDF9ED
:1022C00010C0202912D8DFE801F0161111111111E8
:1022D00011111F111111111111112D1111111111C4
:1022E00011113611111111111111500000221A8013
:1022F000072002B010BD48284FF001020CBF042097
:1023000005201A8002B010BDB0F5D26F128866D0D9
:1023100046D8B0F5CA6F6AD03AD9052002221A8091
:1023200002B010BD18284FF004020CBF1046052063
:102330001A8002B010BD0121198092F90000002816
:102340003DD01FFA8CFC501805E0198092F900402E
:102350000130002C33D001F1010E614502461FFA15
:102360008EF1F2D3042002B010BD1288023292B274
:102370001FFA8CFC62451A802BD8A828F2D022D8EC
:1023800020F04000282814BF0520042002B010BD12
:1023900020F04000B0F5B26F14BF05200420BDE767
:1023A000B0F5696F19D041F65832904201D104203E
:1023B000B4E7B0F5656F14BF05200020AEE7002339
:1023C00013700420CFE7E82814BF0520042002B0D2
:1023D00010BD00221A800A208BE700209EE70848E3
:1023E0000193012107F07AFD019B002096E7044844
:1023F0000193002107F072FD019B00208EE700BFD2
:10240000C028002030B585B00839BDF920E09446D9
:102410001D46202912D8DFE801F016111111111103
:10242000111128111111111111114F111111111147
:1024300011115D111111111111117A0000222A8060
:10244000072005B030BD882800F0B68140F28F80AB
:10245000B0F5A96F00F0C181B0F5B16F14BF0520D0
:10246000042001222A8005B030BD41F29032904212
:10247000BCF8001000F0F48100F29180B0F5347FD8
:1024800000F0198278D9B0F5156F00F0068260D996
:10249000B0F5296F69D040F2B880B0F5656F00F0F3
:1024A0007B8140F2A980B0F5696F14BF0520002040
:1024B00002222A8005B030BD582800F0908198286B
:1024C00000F06C81182814BF0520042004222A8003
:1024D00005B030BD01222A809CF90010002900F0CF
:1024E0003C811FFA8EF00CEB020106E02A809CF979
:1024F00000400131002C00F0308102F1010E8242D7
:102500008C461FFA8EF2F1D3042005B030BD12883C
:10251000023292B21FFA8EFE72452A8000F2388192
:10252000B0F55A7F00F07D8100F21C81B0F5D47FB8
:1025300000F0688140F20781B0F5F47F40F05181EE
:10254000A948BCF80620BCF90210FFF703FC0020E4
:1025500077E7B0F5BA6F08D040F28980B0F5056F23
:1025600003D079D9B0F5116F6ED10420A0E74828C7
:1025700014BF0520042074E7B0F5C87F00F0878100
:1025800040F28480B0F5047F00F07681B0F5247FBE
:1025900020D1964809B206F089FA002088E741F276
:1025A0009052904200F06E8100F28A8041F2904297
:1025B000904200F08B8175D941F21052904200F0A8
:1025C0008A8141F2505290420DD1884806F08AFA31
:1025D00000206DE7B0F5E87F29D1854809B206F003
:1025E00067FA002064E741F2D04290421FD181484F
:1025F00006F094FA00205BE7B0F52D6FB5D0B0F58A
:10260000316F14BF0520042052E7B0F5196F0DD1CA
:1026100075480191FFF7F2FC01990390ADF80E1097
:1026200071480399FFF7A0FB002041E701D2052084
:102630003EE720F04002B2F5216F96D0B0F51D6F55
:1026400014BF0520042033E720F04000B0F5096FE7
:1026500014BF052004202BE7B0F5016F85D020F0D2
:102660004000B0F5F26F14BF0520042020E7B0F55C
:10267000447F05D15D4809B206F048FA002017E70B
:10268000B0F5B26F14BF0520042011E7D02800F088
:102690002C81B0F5887F44D1564809B206F036FA4D
:1026A000002005E741F21042904200F0DF8041F245
:1026B000504290421DD14F4806F008FA0020F7E63C
:1026C00041F29062904200F0FC801CD941F21072FD
:1026D000904200F0108141F6583290423FF445AFED
:1026E00041F2D0629042A2D1434806F0FBF90020AB
:1026F000DEE641F2D032904299D13F4809B206F06D
:10270000D7F90020D4E641F21062904200F0E88050
:1027100041F2506290420CD1354806F0FFF900209A
:10272000C6E6902883D1334809B206F0BFF90020ED
:10273000BEE641F2D05290427FF479AF2C4806F0C9
:10274000C5F90020B4E6A8283FF4DEAE18D9E82881
:1027500014BF0520042005B030BD00238CF80030E4
:102760000420D2E6B0F56A7F63D0B0F5A56F38D10A
:1027700022480CF1020105B0BDE8304007F0FCBA78
:1027800020F04000282814BF0520042005B030BDEB
:1027900000222A800A2054E6002089E6B2F90020AF
:1027A0001749114881FB0231A1EBE27109B2002205
:1027B000FFF7C6FA002089E61278042A03D0032A1C
:1027C00044D000204DE60848FFF742FC00220146B5
:1027D0000548FFF7BFFA002043E6042041E6042045
:1027E00074E605202DE600BF00090020BC00002093
:1027F000E8000020140100204001002064030020B4
:10280000ABAAAA2ADCF802103D4BBCF8062083FBD9
:102810000103A3EBE1713B4809B2FFF791FA0020F5
:102820000FE6DCF8021037480391FFF79DFA00200D
:1028300007E6DCF80630334800EE903ADCF8023068
:1028400000EE103AFFF79AFA0020FAE52D48FFF75C
:10285000A7FB002201462B48FFF772FA002000E692
:10286000294809B206F022F9002021E6264809B2DB
:1028700006F04CF900201BE6244809B206F046F9A0
:10288000002015E6224806F049F9002010E61F480E
:1028900009B206F00BF900200AE61A480191FFF789
:1028A000ADFB01990390ADF80C1016480399FFF7A2
:1028B0005BFA0020FCE5164809B206F0F9F80020A2
:1028C000F6E5114806F002F90020F1E5114806F09E
:1028D00009F90020ECE50E4806F0F8F80020E7E5DD
:1028E0000A4806F0FFF80020E2E50A4809B206F0BF
:1028F000DFF80020DCE5044806F010F90020D7E5F9
:10290000ABAAAA2A0009002040010020E80000200C
:10291000BC0000201401002030B583B0A1F1080CE8
:10292000BDF918E014461D46BCF1200F12D8DFE8AF
:102930000CF01D111111111111113B111111111177
:10294000111124111111111111114F111111111126
:1029500011111400072003B030BD282851D012886F
:102960000232052092B22A8003B030BDBEF1000FC2
:1029700045DD01222A800520EDE7BEF1030F3BDD96
:1029800041F25861884200F0A48041F29861884287
:1029900000F0958041F21861884200F086800520A1
:1029A00004222A8003B030BDBEF1010F24DDB0F552
:1029B000D26F73D014D8B0F5CA6F6DD14A480021D8
:1029C00007F094FA2080002002222A8003B030BD54
:1029D00020283AD060281ED000222A800520BAE79D
:1029E000B0F5656F56D0B0F5696F4FF0020214BFB5
:1029F000052000202A80E9E7082003B030BD084602
:102A0000A9E71FFA8EFE0A21BEF10B0F118034D800
:102A10000C220820A7E7354B93F9000001212980FB
:102A200080B11FFA8EFE9C4608E004F8010B29884D
:102A3000013189B229801CF9010F18B18E45F4D8F3
:102A4000062088E70020207085E7294B93F90000D5
:102A5000012129800028F5D01FFA8EFE9C4609E04E
:102A600004F8010B2988013189B229801CF9010F72
:102A70000028E7D07145F3D3E2E71E494868D1F852
:102A800000C00989C2F80600C2F802C051810020C6
:102A90000C2268E7002097E7052095E712480121FE
:102AA00007F024FA208000208EE71349C86800F060
:102AB0009DFE8DED010A01992160002070E70E490D
:102AC000C86800F0BFFE8DED010A01992160002069
:102AD00066E70949C86800F0E5FE8DED010A019935
:102AE000216000205CE700BFC028002074AC000813
:102AF00084AC000808AD00080009002070B590B053
:102B00001D46A1F10803BDF950C01446202B12D870
:102B1000DFE803F0331111111111111171111111AD
:102B2000111111114C111111111111116711111104
:102B3000111111111400072010B070BDB0F5D47F31
:102B400004F1020300F0A98200F28A80E82800F074
:102B50009A8276D8682800F0B182A82840F08E8248
:102B60001FFA8CFC1022BCF1110F228000F2568259
:102B7000122308202B8010B070BDBCF1000F40F371
:102B80005A82B0F5A96F00F0628200F2988048285E
:102B900000F05782882840F05282B348FFF7E6F9E8
:102BA0002070002001232B8010B070BDBCF1030FFA
:102BB00040F3F181982800F08B8200F2D881182828
:102BC00000F09882582840F03983A748FFF7E0F9D1
:102BD00000EB400040002060002004232B8010B058
:102BE00070BDA02800F0F681E02800F0D781002316
:102BF0002B800520A0E7BCF1010F40F3CC81B0F59C
:102C0000216F00F0E18200F29280B0F5BA6F00F01F
:102C1000D58278D8B0F5047F00F0CA8263D9B0F5C8
:102C2000447F00F0BF8254D9B0F5B26F40F0058206
:102C30008E4805F0B5FE2080002002232B8010B0C6
:102C400070BDB0F5947F40F019821FFA8CFC0C2205
:102C5000BCF10D0F228000F2D5810E23082089E7F8
:102C6000B0F55A7F00F0F981B0F56A7F14D10823DE
:102C700023807F4807F032FE7D4810EE106A07F08F
:102C800029FE2388C4F8026010EE102A0233C4F82B
:102C900006209BB200206DE7B0F5F47F40F0EE8196
:102CA000042323807048FFF769F960806E48FFF7BE
:102CB00069F92388A08002339BB200205AE7B0F55F
:102CC000B16F40F0BC816A4807F010FE2070002010
:102CD00068E7B0F5247F40F01C81664805F0EAFE05
:102CE00020800020A9E7B0F5887F00F0A18240F2A3
:102CF0002481B0F5C87F40F016815F4805F0DAFE08
:102D00002080002099E7B0F50D6F00F08B8236D956
:102D1000B0F5196F00F07E8226D9B0F51D6F40F036
:102D20008C815148FFF778F92080002085E741F237
:102D3000D043984200F068827FD841F290339842A5
:102D400000F05C822CD941F25043984200F050824E
:102D500054D941F29043984240F06F81474805F0C2
:102D6000BBFE2080002068E7B0F5116F50D13E48CF
:102D7000FFF736F9C0F30F40208000205DE7B0F583
:102D8000056F00F02F827FD9B0F5096F40F05581B3
:102D90003548FFF717F9C0F30F40208000204CE7BB
:102DA000B0F52D6F00F0188209D9B0F5656F02D02B
:102DB000B0F5696F0CD1022300202B803FE7B0F5FE
:102DC000256F0FD12848FFF735F92080002034E720
:102DD000B0F5316F40F03181294806F057F8208076
:102DE00000202AE7B0F5296F40F027811E48FFF741
:102DF00021F9C0F30F40208000201EE741F2D033BC
:102E000098420FD11F4805F059FE2080002014E79A
:102E1000B0F5156F40F011811348FFF7EFF82080EF
:102E200000200AE741F21043984240F0068115481D
:102E300005F06EFE20800020FFE641F2106398420C
:102E400000F0A48133D941F2D063984200F07F8131
:102E500023D941F21073984240F0EF80094805F001
:102E60005BFE20800020E8E6000900200000002032
:102E700020020020BC000020E800002014010020F7
:102E80002000002040010020B0F5FA6F20D1B348A7
:102E9000FFF78AF820800020CFE641F25063984285
:102EA00022D1AF4805F038FE20800020C5E641F26F
:102EB0009053984200F0708121D941F2D05398424A
:102EC00040F0BB80A64805F0FFFD20800020B4E65E
:102ED000B0F5016F40F0B180A048FFF765F8C0F38E
:102EE0000F4020800020A8E641F29063984240F015
:102EF000A4809C4805F0E8FD208000209DE641F27A
:102F00001053984221D1984805F0DEFD2080002022
:102F100093E6B0F5347F40F09080934805F0CEFD05
:102F20002080002089E6B0F5E87F40F086808C485C
:102F300005F0C4FD208000207FE690280FD18B484B
:102F400005F0B8FD2080002077E641F2505398420A
:102F500073D1854805F0C0FD208000206DE6D028A3
:102F60006BD1824805F0AAFD2080002065E640F67E
:102F70005823984200F0B58041F65833984240F00B
:102F80005D817B4B186805F055FE8DED010A019BB4
:102F90002360002021E6082010B070BD754B1A6830
:102FA00001232B8002F1240192F924207AB11FFA27
:102FB0008CFC08E004F8012B2B8801339BB22B809A
:102FC00011F9012F1AB16345F4D30620B4E50020AE
:102FD0002070B1E5684A012311682B8091F9002027
:102FE000002AF4D01FFA8CFC09E004F8012B2B888E
:102FF00001339BB22B8011F9012F002AE7D09C45A9
:10300000F3D8E2E75D4A506814689168D268DA60E4
:1030100058601C60996000200E23ABE5584A126886
:10302000506814689168D268DA6058601C609960D2
:10303000002012239EE508467EE50520FDE50520DB
:10304000B0E54648FEF718FF20700020AAE54D487D
:1030500007F048FC20700020A4E5042323803F48AB
:10306000FEF7CCFF60803D48FEF7C8FF2388C0F321
:103070000F400233A0809BB200207BE523880233FF
:1030800005209BB276E51FFA8CFC0E22BCF10F0FD7
:10309000228035D8102308206CE53048FEF76AFFFF
:1030A00000EB40004300C4F802302C48FEF76AFFF2
:1030B0000623E0802380002008235BE51FFA8CFCB8
:1030C0003C22BCF13D0F228027D83E23082051E549
:1030D0002248FEF765FF00EB400040002060002022
:1030E0007BE51E48FEF7CCFE8DED010A019B2360B7
:1030F000002072E51948FEF733FF206000206CE5E0
:10310000214A12681068516894689C601860596080
:1031100092899A81002010232CE5164A126802F148
:10312000300C146850689168D668DE6010326245D1
:103130001C605860996003F11003F2D11068516867
:1031400092689A601860596000203E2312E5054895
:1031500005F0C2FC208000206FE500BF00090020C0
:10316000E800002040010020BC00002014010020E5
:1031700050030020400400204404002028040020C4
:1031800038040020200200203C0400202C4805F0D8
:10319000A3FC2080002050E52A4805F0BDFC2080DB
:1031A00000204AE5274805F0B3FC2080002044E5D4
:1031B000234805F0ADFC208000203EE5224805F0C4
:1031C0005BFC2080002038E52048FEF725FFC0F397
:1031D0000F402080002030E51D4805F013FE2080C0
:1031E00000202AE51948FEF7EDFE2080002024E5A6
:1031F000184805F069FC208000201EE5164805F0FF
:1032000059FC2080002018E5124805F085FC20803C
:10321000002012E50D48FEF7F1FEC0F30F402080BC
:1032200000200AE50948FEF7DBFE2080002004E5C7
:10323000084805F06DFC20800020FEE40520CCE469
:10324000E8000020BC000020EC0200200009002063
:1032500020000020140100204001002000F0380070
:103260000838C0B210289ABF014B185C0020704784
:1032700058AC000800F03803102B03D0414B0B6012
:103280000520704720F00700B0F5196F83B250D0C9
:103290000FD8B3F5096F52D022D9B3F5116F54D0BE
:1032A000B3F5156F13D1384B5B68103300200B60FA
:1032B0007047B3F5296F4ED01ED9B3F52D6F5CD092
:1032C000B3F5316FDAD1314B0B6000207047B3F5A5
:1032D0000D6FD3D12C4B5B680C3300200B60704713
:1032E000B3F5016F3DD0B3F5056F11D1264B5B6887
:1032F000043300200B607047B3F5216F37D0B3F56E
:10330000256F0DD1204B5B681A3300200B6070478E
:10331000B3F5FA6FB2D11C4B5B680B6000207047AD
:10332000B3F51D6FAAD1184B5B68163300200B60F4
:103330007047154B5B68123300200B607047124BCF
:103340005B68063300200B6070470F4B5B680E33E1
:1033500000200B6070470C4B5B681C3300200B6037
:103360007047094B5B68023300200B607047064BC7
:103370005B68183300200B607047054B0B60002022
:10338000704700BF601B0020000900202C000020B7
:10339000240000202DE9F04FB0F90C40324B89B0E9
:1033A0004FF0000A06935445304BADF816A0D0E913
:1033B00001C607460793A0F80EA03BDD06EB010807
:1033C000CDF80CA0C6F101090CF10205BCF800C053
:1033D0005FFA8CF1023C01F0070B0DF1200A1CF0A2
:1033E000060F0FFA84FE0DF116032A46A4B22CF044
:1033F00007000AEB8B0B01F0380122D1CDF800E079
:103400005BF808BCD847BDF8162006EB0903DBB211
:10341000A41A012B24B205EB020C1AD0464514D095
:1034200006F8010BFB890133FB8140B9002CCBDC92
:10343000039838B90020F88109B0BDE8F08F07285B
:103440000CD1012009B0BDE8F08F082009B0BDE81B
:10345000F08F002CE2D10028ECD0F3E70A28F0D05E
:1034600001230393E2E700BFB92200080524000806
:103470002DE9F04786B00023ADF80E30C381B0F8D7
:103480000C801F4B04931F4BD0F804908668059363
:10349000B8F1000F23D007460DB24C4634F802CBEA
:1034A0005FFA8CF101F0070E0DF1180A1CF0060FFF
:1034B00032462CF007000DF10E030AEB8E0E01F0E0
:1034C00038010CD100955EF808ACD047A8EB040396
:1034D00019FA83F39BB230B106B0BDE8F087012042
:1034E00006B0BDE8F087BDF80EC0FA89A5EB0C0563
:1034F00062446644FA812DB2002BCFD1ECE700BFC5
:1035000019290008FD2A000870B545682B8803F4C6
:103510007F4223F0070CB2F5807F82B004461FFA89
:103520008CFC60D0013B6A4E03F0070303EB4303BE
:10353000023506EB03162368456080899A890238B4
:10354000013A80B24FF0000EBCF1480F91B2A08159
:10355000A4F80EE012B234D8BCF1480F26D8DFE848
:103560000CF083252525252525258C252525252594
:10357000252592252525252525259825252525251B
:1035800025255A252525252525256125252525257A
:10359000252555252525252525256D252525252563
:1035A000252574252525252525257C004FF0000C93
:1035B0000220A36803F80C00E3890133E38102B021
:1035C00070BDBCF1680F09D1A3680093294604F1CE
:1035D0000E03FDF799FAB4F80EC0EAE7BCF5807F58
:1035E000F446E5D15DE0808923680238CCF3C40C51
:1035F0009A8980B202350023BCF1010FA081656079
:10360000E3814CD94FF0000C0D20D2E73046FEF795
:1036100033FC002853D03046FEF76CFCB4F80EC0E3
:103620000020C6E73046FEF727FC0628F6D13046D4
:10363000FEF7AAFCB4F80EC00020BAE73046FEF749
:103640007BFCB4F80EC00020B3E730460021FEF743
:103650000DFDB4F80EC00020ABE73046FEF7FCFCD1
:10366000B4F80EC00020A4E7A36804210122E18180
:103670001A70B4F80EC000209BE72046FFF78AFEC0
:10368000B4F80EC095E72046FFF7F2FEB4F80EC07E
:103690008FE73046FEF714FCB4F80EC089E7013A14
:1036A00012B20C4B53F82C60002EABD0A3680093E1
:1036B000294604F10E03B047B4F80EC079E730464E
:1036C000FEF7FEFB80F00100B4F80EC0C0B270E758
:1036D00000090020581A00200E490F4AD1F8FC308A
:1036E00043F08073C1F8FC3013682BB100235360A2
:1036F000136843F00103136000234FF0FF32C0E969
:103700000233C0E90423C0E90633C0E9082303708B
:103710004360704700ED00E0001000E000EB411353
:1037200000224FF0FF31C3E90321C3E908125A61B7
:10373000DA617047024B00EB01115B688B607047E8
:10374000001000E00022044B426000EB01115B68B6
:10375000012202708B607047001000E00F4A00EBFE
:10376000011310B49B685468A34288BF04F1FF346E
:103770000A01E31A02440478D36014B142681A447F
:10378000426000EB01105DF8044B42699A42026905
:1037900038BF43619A4288BF03617047001000E060
:1037A000114A00EB011310B49B68546800220270A8
:1037B000A3424FEA0112024488BF04F1FF34E31A26
:1037C000D36044689C4238BF1B1B00EB011038BF1C
:1037D000D36042695DF8044B9342026988BF43613C
:1037E000934238BF03617047001000E090ED037A08
:1037F000DFED106AD0ED077AB8EE477AF8EE677A17
:1038000087EE260A87EEA66ADFED0B6A9FED0B7A3C
:1038100020EE260AF7EE007AA6EE070AB4EEE70AD3
:10382000F1EE10FADABFDFED067A20EE270A9FEDFF
:10383000040A70478096984C00007A4600007A444B
:103840000000C84290ED097ADFED116AD0ED057AEB
:103850009FED100AB8EE477AF8EE677AC7EE265A5F
:1038600087EEA66ADFED0C6A9FED0C7AA5EEA60A3C
:10387000F7EE007AA6EE070AB4EEE70AF1EE10FAC8
:10388000DABFDFED077A20EE270A9FED050A7047C1
:103890008096984C0000000000007A4400007A46B0
:1038A0000000C842036A5A1C2AD007EE903A9FEDE6
:1038B000176A03699FED167A9FED160AF8EE677A8C
:1038C000591CC7EE866AA6EE870A0BD007EE903A1F
:1038D0009FED0E6A9FED107AF8EE677AC7EE866A62
:1038E000A6EE870AF7EE007AB4EEE70AF1EE10FAD8
:1038F000DABFDFED0A7A20EE270A9FED080A70474B
:1039000003699FED040A5A1CE0D170478096984CD9
:1039100000007A440000000000007A460000C8421F
:103920000268402370B4136252E8003F43F0400342
:1039300042E800310029F7D102F1080151E8003FC7
:1039400043F0800341E80034002CF7D10169174EA1
:103950008368745C4568234402F128019960C36858
:10396000F15C402313626B5843F002036B5002F189
:10397000080151E8003F43F0010341E80034002C06
:10398000F7D1C368F05C054402F124014023A9602B
:1039900002F10801136251E8003F43F0400341E89F
:1039A0000032002AF7D170BC704700BF6CAC000831
:1039B00030B403690C4D8468EB5CE058C00704EB3D
:1039C000030C0ED4CCF80C10DCF80410090C09041C
:1039D0001143CCF80410E25801200243E25030BCFD
:1039E0007047002030BC70476CAC000830B4C3682E
:1039F0000B4D4468E85C255804EB000C25F00105EC
:103A00002550CCF80C10DCF804301B0C1B041A43B6
:103A1000CCF80420235843F00103235030BC7047F6
:103A20006CAC000802681023136252E8003F43F0B8
:103A3000100342E800310029F7D1704770B5044601
:103A40004069E36C98470023656DA4F8643084F8FE
:103A50006030606904F11C012B460422BDE870400F
:103A6000184700BF10B40B780A7991F802C01E4CB9
:103A7000DB0143EA02134A7843EA0223CA7843EAA5
:103A80008C3343EA4253DAB242F0050223F070412C
:103A9000A25C82EA1122D2B2A25C82EA1142D2B2C4
:103AA000A25C124C82EA1162A25C43EA027343F008
:103AB0000503036272B6836C4BB162B690F8243092
:103AC00013B9022380F824305DF8044B704700F1ED
:103AD0002001032380F82430816462B60422836DC0
:103AE0005DF8044B4069184724AD000814AD000888
:103AF00030B54FEA411C90F860E090F863401E4DED
:103B00004CEA011C0EF0010E4CEA023C4CEA8E130A
:103B100043EACE1304F00F0443EA0423DAB2174C4D
:103B200042F0060243F00601A25C82EA1322D2B2FE
:103B3000A25C82EA1342D2B2A25C82EA1363EB5C1B
:103B400041EA0373036272B6836C3BB162B690F8CC
:103B5000243013B9022380F8243030BD00F1200155
:103B6000032380F82430816462B60422836D4069A7
:103B7000BDE83040184700BF14AD000824AD000870
:103B80000A2A10B403460BD090F83620012A21D916
:103B900090F83E20012A11D900205DF8044B7047AF
:103BA00090F82E20012AF7D8826A012404320A6094
:103BB00083F82E4020465DF8044B7047826B01204D
:103BC00003F1380483F83E0004321C645DF8044BB2
:103BD0000A607047026B012003F1300483F836005D
:103BE00004321C645DF8044B0A60704770B590F8AD
:103BF0006440022C02D00221084670BD43EA021440
:103C000041F8044C90F86C40012C04D14FF6CA6482
:103C10008C52023292B20A2B03D1047C94B300245A
:103C2000047451F8044C354DE6B2C4F3072EAE5D72
:103C30008EEA060E043215F80E60C4F3074E8EEAC3
:103C4000060EA1F1040C15F80EE0C4F303658EEA2C
:103C5000050E2B4D15F80E5044EA057492B241F84A
:103C6000044C72B6816CE1B162B6092B0DD00A2BFF
:103C70002ED0002B32D190F8241069BB022380F89B
:103C80002430B9E70121084670BD036C446C196803
:103C90008C4514BF032100216CB3022098719A80D7
:103CA000AAE7092B22D00A2B4FF003010BBF00F12A
:103CB000280300F1200380F82E1080F8241083647C
:103CC00062B6836D4069614698470021084670BD21
:103CD00090F82E30012B03D003218DE700218BE7D4
:103CE000022380F82E308285002185E7036C0321B2
:103CF00099718364E4E74364CFE700BF24AD000813
:103D000014AD000810B590F82430032B044613D0EE
:103D1000826C0021917190F82E20022A13D0022B80
:103D20001DD100F12001836D816404224069984710
:103D3000032384F8243010BD90F82E300022022B8B
:103D400080F824200BD104F12800A36DA064A28D7B
:103D5000A16A60699847032384F82E3010BD72B6BB
:103D6000636CCBB10322A3649A7119689A88606965
:103D7000A36D984794F83630022B07D094F83E3064
:103D8000022B03D00023636462B610BD626C630033
:103D900068339B1A6364F7E7A364F5E72DE9F843FA
:103DA00090F86130C269002504460D8093B190F807
:103DB000646080F86150012E54D0022E3ED0002E57
:103DC00033D0636D6069042204F11C0198472846D2
:103DD000BDE8F88390F86250002DF8D02B0443EA38
:103DE0000525C5F307239549954883F00903CA5C67
:103DF00045F00F0382EA15454A5D825C43EA02738F
:103E0000236272B6A36C002B3AD062B694F82430C9
:103E100013B9022384F8243000256069236D84F8E7
:103E2000625098472846BDE8F883836E052B00F062
:103E30009580062B00F0D7803546C2E7836E052BB0
:103E40005FD0062B00F0D680092BBAD190F86030F5
:103E5000B0F85C20A5690133012084F8603020743B
:103E60000A80AEE7836E052B16D0062BA9D1C2F3CC
:103E70000F323146FFF73CFE022384F86430A0E79E
:103E800004F12001032384F82430A16462B60422E3
:103E9000A36D60699847BFE7037F407F94F86D107A
:103EA00094F86C5094F86E6094F86F7000F03F00D6
:103EB000DB098142C2F3863C28BF0146AB429846EB
:103EC000C2F3465E28BFA846B44584F86C80E0463D
:103ED00028BFB046BE4584F86E80F04628BFB8467D
:103EE000AB4284F86D1084F86F8040F28880002324
:103EF00084F8643004F16C012046FFF7B3FD00251F
:103F00005FE7037F407F94F86D1094F86C6094F83D
:103F10006EC094F86F7000F03F00DB09814228BF4B
:103F20000146C2F3863EB3429946C2F3465828BFC3
:103F3000B146E64584F86C90F14628BFE146B845A5
:103F400084F86E90C14628BFB946B34284F86D101C
:103F500084F86F9064D984F86450CBE7657F007F64
:103F600094F86D3094F86CC094F86EE094F86F801B
:103F700005F03F05C009AB42C2F3863728BF2B4688
:103F800060450146C2F3465928BF6146774584F82B
:103F90006C10394628BF7146C1454E4628BF46467B
:103FA000604584F86D3084F86E1084F86F60A1D895
:103FB0009D429FD877459DD8C1459BD894F8700005
:103FC000C2F30212904295D14A1C0133D2B2DBB245
:103FD0005201B6015B010121A281E681A4F85E30A5
:103FE00084F8641086E7C2F30F323146FFF780FD94
:103FF0003546E6E6427F0121FFF77AFDE1E6884299
:104000003FF675AFB4453FF672AFBE453FF66FAFB2
:1040100094F87030C2F3021293427FF468AF69E7FC
:10402000884298D8E64596D8B84594D894F8705008
:10403000C2F30212AB1A5D425D418CE724AD000869
:1040400014AD000810B590F8653004463BB1012B63
:1040500004D1002280F8652080F8613010BDC1696C
:104060001E4ACBB2D35C83EA1123DBB2D35C83EA72
:104070001143DBB2D35C83EA1161535C5BB9037F0C
:1040800003F00F03062B836609D8042B1ED80123E7
:1040900084F8623010BD042380F8623010BD092B13
:1040A000F5D1838B1B09A0F85C307BB1B0F85E20A2
:1040B0009A420FD390F86C208169406903EB420269
:1040C000636D9847012384F8653010BD012384F89F
:1040D000613010BD022380F8623010BD24AD0008AD
:1040E0000146002280F86520436D406904221C319E
:1040F000184700BF704700BF704700BF08B50448AD
:1041000002F01CFEBDE80840024805F00BBF00BFEE
:10411000641B0020DC0400200E4B10B4186E40F02D
:10412000010018661C6E83B004F001040094009C2A
:104130009C6D44F080549C659B6D03F0805301930B
:10414000019B00220F216FF0010003B05DF8044BCA
:1041500002F082BA00100240D0B50446ACB0002193
:1041600088220AA8CDE90411CDE90611089106F0CC
:104170001DFC2B4B22689A4201D02CB0D0BD4FF4CD
:1041800080424FF040530AA80A92289301F06CFE37
:10419000002841D1234BDA6C42F40052DA64DA6C25
:1041A00002F400520092009ADA6C42F00102DA64E2
:1041B000DA6C02F001020192019ADA6C42F0040218
:1041C000DA64DA6C02F004020292029ADA6C42F0CB
:1041D0000202DA64DB6C03F002030024039303267B
:1041E0000B2704A94FF09040039B0694CDE9046788
:1041F00002F05AF810220B2304A90B480694CDE9CB
:10420000042302F051F80948069404A9CDE9046793
:1042100002F04AF82CB0D0BDFCF73CFCBAE700BF76
:10422000000004500010024000080048000400484C
:1042300010B51A4B026888B000249A42CDE90244B6
:10424000CDE90444069401D008B010BD03F5CE3387
:1042500002A99A6D42F000529A659A6D02F00052DE
:104260000092009ADA6C42F00102DA64DB6C03F02F
:104270000103019330224FF090400323CDE9022344
:10428000019B02F011F822462146362002F0E4F9A3
:10429000362002F01FFA08B010BD00BF00740040C5
:1042A00010B5184A016888B000239142CDE9023365
:1042B000CDE90433069301D008B010BD03F180436B
:1042C00003F5043301241A6E0F4842F400621A66A3
:1042D0001A6E02F400620092009ADA6C42F0020256
:1042E000DA64DB6C049403F0020301934FF4805210
:1042F00002A90223CDE902230694019B01F0D4FF19
:1043000008B010BD002C014000040048000000006F
:1043100000B51B4A016889B000239142CDE9023300
:10432000CDE90433069302D009B05DF804FB03F134
:10433000804303F504339FED107B9A6D114842F0E2
:1043400002029A659A6D02F002020092009ADA6CFB
:1043500042F00402DA64DB6C03F00403019302A967
:1043600002238DED027B019A069301F09DFF09B0B7
:104370005DF804FBAFF30080C00000000200000005
:10438000000400400008004800B51B4A016889B0DD
:1043900000239142CDE90233CDE90433069302D0E4
:1043A00009B05DF804FB03F1804303F504339FED8E
:1043B0000E7BDA6C42F00102DA64DB6C8DED027B7D
:1043C0009FED0B7B03F00103019302A901234FF042
:1043D00090408DED047B019A069301F065FF09B0D2
:1043E0005DF804FBAFF3008000070000020000004E
:1043F0000200000002000000002C014070B50446DD
:10440000AAB00021882208A8CDE90211CDE9041143
:10441000069106F0CBFA324B22689A4201D02AB0BC
:1044200070BD0222042308A80892179301F01CFD16
:1044300000284CD12B4B2C4E9A6D42F400329A65D9
:104440009A6D02F400320092009ADA6C42F0010296
:10445000DA64DB6C03F0010301930C220223CDE943
:1044600002230022019B0023CDE9042302A9072394
:104470004FF09040069301F017FF1C4902220023E1
:10448000C6E9001230468022C6E90233C6E9042399
:10449000C6E90633336202F00FF8F0B9144D15493E
:1044A000666702220023C5E90012284610218022F7
:1044B000C5E90213C5E90533C5E90733B4622A61CA
:1044C00001F0FAFF30B92567AC622AB070BDFCF785
:1044D000E1FAAFE7FCF7DEFAF5E7FCF7DBFADDE738
:1044E0000044004000100240F00400206C00024034
:1044F0003805002080000240234B70B59A6D42F0D1
:1045000010029A659B6D88B003F010030293054674
:1045100001A903A8029B01F071FB069BD3B901F02E
:1045200049FB034619481A4C1A49A0FB03239B0C6C
:10453000013B0022C4E90013204640F2E733226128
:10454000A260A261E36002F069F9064630B130462C
:1045500008B070BD01F02EFB4300E3E7204602F0F7
:10456000E9F906460028F2D1362002F0B3F80F2D03
:1045700001D90126EBE732462946362002F06CF8D5
:10458000054B1D60E3E700BF0010024083DE1B43C4
:10459000641B0020001000404C04002030B583B0A4
:1045A00000230193002800F0BA80456D0446002DD9
:1045B00000F0A280226893689D0005D5936823F0DF
:1045C000204323F03F0393609368D80019D45E4BD7
:1045D0005E481B6891689B09A0FB030321F0104112
:1045E0009B0921F03F0101335B0041F08051916054
:1045F0000193019B2BB1019B013B0193019B002B7C
:10460000F9D19368D90069D4636D43F010036365F1
:10461000A36D01200343A365936813F0040F636D3A
:1046200063D1DB0661D4636D23F4817343F002032D
:1046300063659368DD0710D44549464B89689B68DC
:104640000B43454989680B43D90706D4434965683C
:104650008B6823F47C132B438B60E568636B94F8C1
:1046600020102B43A5682B43657E012943EA45337F
:1046700043EA01434ED0A16A21B1E56A01F47071A9
:1046800029430B43D568364929400B43D3609368CF
:104690001B0714D4D16894F83030257E21F4804172
:1046A0005B0021F0020143EA85330B43D36094F8A9
:1046B0003830012B36D0136923F0010313612369CD
:1046C000012B1FD0136B23F00F031363636D23F0D3
:1046D000030343F00103636503B030BD936813F037
:1046E000040F4FF00000636D9BD0636D012043F019
:1046F0001003636503B030BDFFF72EFDA56584F898
:10470000505057E7116BE36921F00F01013B0B4358
:104710001363DBE7616A013943EA4143ABE70120F8
:1047200003B030BD1169E36B256C21F4FF6121F00A
:1047300004012B430B43616C0B43A16C0B4343F00F
:1047400001031361BBE700BF50040020632D3E0549
:104750000000045000010450000204500003045003
:1047600007C0F0FFF0B590F8502083B00346012A4F
:104770004FF00000019000F03A811C68012083F89E
:104780005000A26812F0040C58D14868052840F285
:10479000958000F01F054FF01F0E82090EFA05FEEE
:1047A00002F00C0C6FEA0E0E0A6804F13000C2F33E
:1047B0008462AA4050F80C5005EA0E0E42EA0E023E
:1047C00040F80C20A268560746D5A2680A68A0687F
:1047D000C507164613D4CF68B448D4F8B05007F0D4
:1047E000180C20FA0CF0C2F3120C104025EA0C054C
:1047F0002843C4F8B000AE48874200F0A780AD4A15
:10480000164227D0AC4AAD4990688E4200F0E07560
:104810001DD0AB498E4200F0ED80AA498E4219D1DD
:1048200010F4800016D1A8498C4213D1916821F070
:10483000E071294341F48001916003E05A6D42F038
:1048400020025A65002283F8502003B0F0BD000218
:1048500040F1F6800020F5E7A268120765D40868E9
:104860008A68C60D06F0040604F11405C0F304506E
:1048700002FA00F74FF0070C72590CFA00F022EA26
:1048800000023A4372510E69E268042E1DD004F111
:104890006007C2F3C10257F826C08C4D50000A6869
:1048A0000CEA050502F0F84215434A6982402A43A2
:1048B00042F0004247F826200A6888E702380328B9
:1048C00035D96FF4F86E06256EE70A68206E206E03
:1048D000C2F31205C0F38460002D40F0FF80C2F3E4
:1048E0008465A84200F07381606E666E04F160001A
:1048F000C6F3846604F16407AE4200F05681866810
:10490000866800F10807C6F38466AE4200F03B817A
:10491000C668C66800F10C07C6F3846085427FF460
:1049200056AF3A6822F000423A600A684FE7684A98
:1049300052F820504FF01F0EAA0905F01F050EFA7D
:1049400005FE02F00C0C6FEA0E0E2DE7BCF1000F15
:1049500065D092FAA2F0002800F0F180B0FA80F061
:10496000013000F01F00092840F2E98092FAA2F01D
:10497000002800F04881B0FA80F00130800600F095
:10498000F84092FAA2F5002D00F04281B5FA85F5C3
:10499000013505F01F05012606FA05F5284392FAB0
:1049A000A2F2002A00F03281B2FA82F2013202F061
:1049B0001F056FF01D06032212FB0562120542F06F
:1049C00000720243D60D886806F0040604F114054F
:1049D000C2F3045200FA02F74FF0070C70590CFAB8
:1049E00002F220EA02023A4372510E6807E70220FF
:1049F00003B0F0BDC1013FF52DAF334A944204D05E
:104A000002F5007294427FF425AF2B498A6822F0A8
:104A1000E0722A4342F0807200208A6012E7920E10
:104A2000501C00F01F06092E32D885060122B24024
:104A300005F0F845154306EB460212052A43C1E787
:104A4000A2F54072944204D002F5007294427FF4C1
:104A500001AF19491F488A6822F0E072154345F4F6
:104A600000058D6002681C499209A1FB021292099F
:104A7000013202EB420292000192019A002A3FF4B5
:104A8000E9AE019A013A0192019A002AF9D1E1E6D0
:104A900006EB460280061E3A012500F0F84012059A
:104AA00005FA06F642F0007230438AE7FFFF07007E
:104AB00000007F400000088000030450000052C73F
:104AC000000084CB010000800000045000F0FF03D0
:104AD00024AE000850040020632D3E0592FAA2F592
:104AE0001DB1B5FA85F5A84271D0606E666E04F10D
:104AF0006000C6F3846604F1640792FAA2F51DB162
:104B0000B5FA85F5AE4250D08568866800F1080791
:104B1000C6F3846692FAA2F51DB1B5FA85F5AE42E8
:104B200031D0C568C56800F10C07C5F3846092FAFE
:104B3000A2F5002D3FF44BAEB5FA85F5EEE692FAFC
:104B4000A2F5002D59D0B5FA85F50135AD0605F071
:104B5000F84592FAA2F000284DD0B0FA80F001306A
:104B600000F01F00012606FA00F0054392FAA2F2B7
:104B7000002A45D0B2FA82F0013000F01F0000EBAD
:104B8000400002055AE73A6822F000423A60C268E3
:104B90000A6800F10C07C068C2F31205C0F3846014
:104BA000002DC4D1C2F38465B8E63A6822F0004211
:104BB0003A6082680A688668C2F3120500F1080745
:104BC000C6F38466002DA5D1C2F384659DE6226EEE
:104BD000204622F0004240F8602F626E0A68666E3E
:104BE000C2F3120504F16407C6F38466002D84D174
:104BF000C2F3846580E60220B7E74FF08065A8E73E
:104C00004FF440121AE74FF08060BAE6014AD8E646
:104C10000225C3E6000050FEF0B590F8503083B096
:104C20000022012B0192026900F05881012380F8D3
:104C30005030E2B18B69012B19D0046E002C40F08A
:104C4000D0800A6A002A00F007825D1E4C6A02F0DA
:104C50003C032B432343D1E90024056604F01F05E0
:104C6000C2F38464AC401C43C465036805E04B6830
:104C7000082B00F0A1800A6803689C6827070DD400
:104C80004C7F002C40F090800C7FDD688E7F2405E7
:104C900025F4401544EA46542C43DC609C6814F02B
:104CA000040437D09C6800249D68EE0714D4CF68B4
:104CB000B14DD3F8B06007F0180C25FA0CF5C2F32B
:104CC000120E154026EA0E0C45EA0C05C3F8B0504A
:104CD000AA4DAF4200F0BD80A9490A4214D0A94EA6
:104CE000A94DB168AA4201F0E07700F0CD80A74D50
:104CF000AA4200F08C80A64DAA4205D14A0203D4F4
:104D0000A44A934200F0FC81002380F850302046F2
:104D100003B0F0BD9D6815F00805C5D10C6A002CE4
:104D200040F089804C7F012CDC680CBF44F000749B
:104D300024F00074DC60002491F82850012D00F06C
:104D400033811D6925F002051D61D70D8D6807F0BF
:104D5000040703F11406C2F3045E05FA0EFC0722F1
:104D6000BD5902FA0EF225EA020242EA0C02BA51D9
:104D70000F69DA68042F00F0B98003F1600CC2F308
:104D8000C1025CF827E0844E55000A680EEA060668
:104D900002F0F84216434A69AA40324342F0004208
:104DA0004CF827200A687FE7DC688D7F24F44014E4
:104DB00044EA4554DC6071E70B6A0A68002B00F096
:104DC00091804C6A03F03C03950C05F4F85523439D
:104DD0001D430368714EDC6C34402C43DC64C565B4
:104DE0004BE70A684B68C2F3846503F01F039D40DC
:104DF000C36D013C1D4304660368C565002C7FF448
:104E00003CAFDC6C654E34402543DD6435E7C901B9
:104E10003FF57AAF5F4A934204D002F500729342A5
:104E20007FF472AF574A936823F0E0731F4347F053
:104E30008077976068E74C6A002C3FF473AF4C7F33
:104E4000012C00F058812C46DD6825F00075DD60EE
:104E500072E7BEF1000F40F0B280920E551C05F0D3
:104E60001F0CBCF1090F40F216810CEB4C02AD0691
:104E70001E3A012605F0F845120506FA0CFC42F030
:104E8000007245EA0C05D0E00D023FF53DAF414A06
:104E9000934204D002F5007293427FF435AF394A51
:104EA000936823F0E0731F4347F400073C4B97607F
:104EB0001B683C4A9B09A2FB03239B0903EB4303AA
:104EC0009B0018330193019B002B3FF41DAF019B06
:104ED000013B0193019B002BF9D115E702242046E9
:104EE00003B0F0BD950C05F4F85572E71A6E0A6828
:104EF0001D6EC2F31206C5F38465002E00F0AF806C
:104F000092FAA2F626B1B6FA86F6B54200F0008112
:104F10005D6E5F6E03F16005C7F3846703F1640C97
:104F200092FAA2F626B1B6FA86F6B74200F00581EB
:104F3000AE68AF6805F1080CC7F3846792FAA2F671
:104F400026B1B6FA86F6B74200F00C81EE68EF683B
:104F50000C35C7F3846792FAA2F6002E3FF4A4AE94
:104F6000B6FA86F6BE427FF49FAE2A6822F000426F
:104F70002A600A6898E600BFFFFF070000007F4034
:104F80000000088000030450000052C7000084CBDA
:104F9000010000800000045000F0FF0300200882A0
:104FA00050040020632D3E05D1E90B571E693D4397
:104FB00026F4FF76354345F002051D61C5E692FAF9
:104FC000A2F5002D73D0B5FA85F5013505F01F0562
:104FD000092D6CD992FAA2F5002D00F0D980B5FA0E
:104FE00085F50135AD0605F0F84592FAA2F6002EDA
:104FF00000F0CC80B6FA86F6013606F01F060127CF
:1050000007FA06F6354392FAA2F2002A00F0C380AE
:10501000B2FA82F2013202F01F066FF01D0703227E
:1050200012FB0672120542F000722A43D70D8D68FA
:1050300007F0040703F11406C2F3045205FA02FC58
:105040004FF0070EBD590EFA02F225EA020242EABB
:105050000C02BA510A683FE6013B1D46FBE5C2F36C
:105060008466B54254D05D6E5F6E03F16005C7F390
:10507000846703F1640CB7425FD0AF68AF6805F195
:10508000080CC7F38467B7426CD0EF68EF680C3543
:10509000C7F3846766E7AE06012202FA0CF206F057
:1050A000F84616430CEB4C0212053243BEE792FA67
:1050B000A2F6002E76D0B6FA86F60136B60606F0CF
:1050C000F84692FAA2F5002D6AD0B5FA85F50135B9
:1050D00005F01F05012707FA05F52E4392FAA2F203
:1050E000002A5AD0B2FA82F5013505F01F0505EB0A
:1050F00045052A05D9E7456D45F0200545651BE6C0
:10510000B36823F0E0733B4343F48003B360FBE5F3
:105110001A6E1D4622F0004245F8602F5A6E0A684A
:105120005F6EC2F31206C7F3846703F1640C002EAE
:105130007FF4F6AEC2F384669DE7DCF8002022F02F
:105140000042CCF80020AA680A68AF68C2F31206D1
:10515000C7F3846705F1080C002E7FF4EFAEC2F3AD
:10516000846690E7DCF8002022F00042CCF80020B2
:10517000EA680A68EF68C2F312060C35C7F3846761
:10518000002E7FF4E8AEC2F38466EBE6022639E730
:105190004FF0806529E7054A47E74FF4401284E75E
:1051A00002259AE74FF080668BE700BF000050FEB3
:1051B000F0B490F850200E68012A9AB054D00346FB
:1051C0002F4D1C6800220120AC42169283F850003B
:1051D000179208D0596D83F8502041F0200159658D
:1051E0001AB0F0BC7047274A906840070BD5A268F8
:1051F0005A6D42F0200201205A65002283F85020A7
:105200001AB0F0BC7047A0684507F1D41E4DE6B156
:10521000A8684F6893F830C020F46040384340EAF3
:105220004C30A860A4689068184A926820431043E4
:1052300010F0010016D18A681643AA6822F4716240
:1052400022F00F021643AE60D7E7A9680F4E21F493
:105250006041A960A1689068B2680843104310F0EB
:10526000010005D00020C8E702201AB0F0BC70474A
:10527000AA6822F4716222F00F02AA60BDE700BFA3
:1052800000000450000104500003045000020450C8
:1052900003689A68520702D59B6801207047986896
:1052A00010F00800F9D1DA6822F0004222F400126E
:1052B00042F00042DA6070470A4A136843F4807390
:1052C00010B50320136001F0B5F90020FFF714F9C1
:1052D00010B10124204610BD0446FEF71DFF2046F4
:1052E00010BD00BF00200240034A044B11681B7828
:1052F0000B441360704700BFB01B0020480400201F
:10530000014B1868704700BFB01B002038B5044639
:10531000FFF7F6FF631C054602D0044B1B781C44C4
:10532000FFF7EEFF431BA342FAD338BD4804002029
:1053300030B5204DAB6DDB0083B004461CD501F0C9
:105340002FF9B0F5007F29D0802C13D82FD0A4F1ED
:105350007004B4FA84F4640917490B6823F0070356
:1053600023430B60086800F00700001B18BF0120F2
:1053700003B030BD0324EFE7AB6D43F08053AB6562
:10538000AB6D03F080530193019B01F009F9AB6D04
:10539000B0F5007F23F08053AB65D5D1802C04D9C4
:1053A000A02C8CBF02240124D6E70024D4E70224D9
:1053B000D2E700BF0010024000200240284A936854
:1053C000D26813F00C0308D00C2B38D0042B34D047
:1053D000082B244818BF00207047214A116809078C
:1053E00054BFD2F8942012681F4954BFC2F303225D
:1053F000C2F3031251F8220003B30C2B2DD1184B2A
:10540000DB6803F00303022B25D0164A032B08BFE9
:105410001046134BD968DA68DB68C3F34163C2F303
:105420000622C1F30211013302FB00F001315B00DF
:10543000B0FBF1F0B0FBF3F070470C48704702F09E
:105440000302012AC9D0064BDB6803F00303022BD9
:105450004FF00000D9D10548DBE70020704700BFBE
:105460000010024000127A00E0AE00080024F400B0
:10547000002800F04A822DE9F043A84A03689568A5
:10548000D6680446D80683B005F00C0506F003067E
:105490002ED5002D00F003810C2D00F0FD80A369B6
:1054A0009E4F002B00F0D7813B6843F001033B6027
:1054B000FFF726FF804606E0FFF722FFA0EB08007B
:1054C000022800F2D9813B689B07F5D53B6843F081
:1054D00008033B603B68226A23F0F00313433B6000
:1054E0007B68E26923F47F4343EA02237B602368FD
:1054F000D90700F1A680990723D5042D00F09A81E1
:105500000C2D00F09481E368844E002B00F0CF81D5
:10551000336843F480733360FFF7F2FE074605E01B
:10552000FFF7EEFEC01B022800F2A68133685B0580
:10553000F6D57368226923F0F85343EA0263736077
:105540002368190719D56369744E002B00F05B813D
:10555000D6F8943043F00103C6F89430FFF7D0FE3C
:10556000074605E0FFF7CCFEC01B022800F284814D
:10557000D6F894309A07F5D523685F073ED5674B78
:105580009A6DD60000F191819A6D42F080529A6531
:105590009B6D03F080530193019B0126604F3B6894
:1055A000D80540F1CC81A368012B00F09281052B36
:1055B00000F0F081594FD7F8902022F00102C7F88F
:1055C0009020D7F8902022F00402C7F89020002BFA
:1055D00040F08681FFF794FE41F28839804606E06C
:1055E000FFF78EFEA0EB0800484500F24581D7F892
:1055F00090309B07F4D4002E40F0B381A36A002BB7
:1056000000F0F080022B00F09C800C2D00F09580C3
:10561000424C236823F080732360FFF771FE054638
:1056200005E0FFF76DFE401B022800F2258123688C
:1056300013F00073F5D1E1683A4A0A401846E26077
:10564000D1E0082D00F0D5800C2D00F0CF806368EC
:10565000B3F5803F00F01481B3F5A02F00F08D81E9
:105660002E4F3A6822F480323A603A6822F480225F
:105670003A60002B40F00981FFF742FE804606E0C9
:10568000FFF73EFEA0EB0800642800F2F5803B68BF
:105690009803F5D423682EE7012E7FF400AF1F4B4B
:1056A0001B68990746D41D4B206A1A68120756BF1B
:1056B000D3F894301B681B0903F0F003984200F202
:1056C0002681164B1A6842F008021A601A6822F006
:1056D000F00202431A605A68E16922F47F4242EA0A
:1056E00001225A60002D00F04281FFF767FE0B4B4C
:1056F0000D4A9B68C3F30313D35C0C4A03F01F03EA
:1057000020FA03F310680A4A1360FEF7F5FE00283A
:1057100069D12368D9077FF5EEAE92E70010024009
:1057200000700040FCFFEEFEC8AE00084C040020F4
:1057300050040020A369002BB5D1012003B0BDE8BF
:10574000F0839B4EE26AF36803F00301914200F09C
:1057500033810C2DF1D0964D2B685F01EDD42B6871
:10576000DE00EAD42B6823F080732B60FFF7C8FDBE
:10577000064604E0FFF7C4FD801B02287CD82B6896
:105780009801F7D4E9688B4BE26A894E0B401343CA
:10579000D4E90C2143EA0123D4E90E01013A43EA9A
:1057A0000213226C0009490843EA404301395208B8
:1057B00043EA4153013A43EA4263EB602B6843F00A
:1057C00080732B60EB6843F08073EB60FFF798FD0C
:1057D000044604E0FFF794FD001B02284CD8336810
:1057E0009901F7D5002003B0BDE8F083032E7FF4C4
:1057F0002EAF6F4A126892037FF57DAE6268002A71
:105800007FF479AE99E7D6F8943023F00103C6F817
:105810009430FFF775FD074604E0FFF771FDC01BEC
:10582000022829D8D6F894309B07F6D4A4E6022E95
:105830007FF469AE5E4A1268520503D5E268002A19
:105840003FF47BAF5A4920694A6822F0F85242EA95
:1058500000624A6075E63B6823F001033B60FFF796
:105860004FFD80463B6898077FF553AFFFF748FD33
:10587000A0EB08000228F5D9032003B0BDE8F083AF
:105880004B4A136843F480331360FFF739FDDFF8A8
:105890002081074604E0FFF733FDC01B6428EBD8E6
:1058A000D8F800309B03F6D5F4E6002676E6336898
:1058B00023F480733360FFF723FD074604E0FFF70E
:1058C0001FFDC01B0228D7D833685805F7D42368BA
:1058D00037E6374AD2F8903043F00103C2F89030EF
:1058E000FFF70EFDDFF8C880074641F2883904E073
:1058F000FFF706FDC01B4845BED8D8F890309A0780
:10590000F6D5002E3FF47AAE2BE001207047FFF76A
:105910000FFD00287FF411AF254B1A6842F00802F2
:105920001A601A68216A22F0F0020A431A605A6863
:10593000E16922F47F4242EA01225A60D5E63B68DF
:1059400043F480733B60FFF7DBFC80463B68D9057E
:105950003FF529AEFFF7D4FCA0EB08000228F5D9EB
:105960008AE7134A936D23F08053936546E6FFF769
:10597000DFFC00283FF4B9AEDFE603F18043A3F576
:105980003C331A6842F480221A601A6842F480326A
:105990001A607AE7064BD3F8902042F00402C3F86D
:1059A0009020D3F8902042F00102C3F8902097E7AE
:1059B000001002408C809DF9216B03F070020139C8
:1059C000B2EB011F7FF4C5AE616B03F4FE42B2EB94
:1059D000012F7FF4BEAEA26B073A03F4003118BF6B
:1059E000012291427FF4B5AEE26B520803F4C0018C
:1059F000013AB1EB425F7FF4ACAE226C520803F087
:105A0000C063013AB3EB426F7FF4A3AE33689A01EF
:105A10003FF5E8AE336843F080733360F36843F0DA
:105A20008073F360FFF76CFC044605E0FFF768FC49
:105A3000001B02283FF620AF33689B01F6D5D1E664
:105A4000002800F09F80534A136803F007038B423D
:105A50002DE9F0410D4604460CD2136823F00703EC
:105A60000B431360136803F007038B4202D001203D
:105A7000BDE8F08123689E0771D54748A168826818
:105A800002F0F002914204D9826822F0F0020A4347
:105A90008260DA0726D562683F4B032A1B6865D00F
:105AA000022A6CD0002A71D19B07E0D53A4EB36828
:105AB00023F003031343B360FFF722FC41F288385D
:105AC000074604E0FFF71CFCC01B40455CD8B368E8
:105AD000626803F00C03B3EB820FF3D123689E07D7
