:020000040800F2
:100000000080012039A5000889A5000855230008B3
:1000100089A5000889A5000889A50008000000003E
:100020000000000000000000000000001184000833
:1000300089A5000800000000A184000805850008CB
:1000400089A5000889A5000889A5000889A50008D8
:1000500089A5000889A5000889A5000889A50008C8
:1000600089A5000889A5000889A5000889A50008B8
:1000700089A5000889A5000889A5000889A50008A8
:10008000B921000889A500085121000889A50008A8
:1000900089A5000889A5000889A5000889A5000888
:1000A0007D2100086521000889A5000889A50008B0
:1000B00089A5000889A5000889A5000889A5000868
:1000C00089A5000889A5000889A5000889A5000858
:1000D00089A5000889A50008D921000889A500087C
:1000E0005D23000889A5000889A5000889A50008E6
:1000F00089A5000889A5000889A5000889A5000828
:1001000089A5000889A5000889A5000889A5000817
:1001100089A5000889A500083540000889A50008C0
:1001200089A5000889A5000889A5000889A50008F7
:1001300089A5000889A5000889A5000889A50008E7
:1001400089A5000889A5000889A5000889A50008D7
:1001500089A5000889A5000889A5000889A50008C7
:1001600089A5000889A5000889A5000889A50008B7
:1001700089A5000889A5000889A5000800000000DD
:0801800089A5000889A500080B
:1001900010B5054C237833B9044B13B10448AFF3C1
:1001A00000800123237010BDE00400200000000047
:1001B00000A6000808B5034B1BB103490348AFF381
:1001C000008008BD00000000E404002000A6000834
:1001D00053B94AB9002908BF00281CBF4FF0FF31AE
:1001E0004FF0FF3000F074B9ADF1080C6DE904CEAA
:1001F00000F006F8DDF804E0DDE9022304B0704702
:100200002DE9F047089D04468E46002B4DD18A42C9
:10021000944669D9B2FA82F252B101FA02F3C2F1FC
:10022000200120FA01F10CFA02FC41EA030E94408D
:100230004FEA1C48210CBEFBF8F61FFA8CF708FBAE
:1002400016E341EA034306FB07F199420AD91CEB86
:10025000030306F1FF3080F01F81994240F21C81B8
:10026000023E63445B1AA4B2B3FBF8F008FB103300
:1002700044EA034400FB07F7A7420AD91CEB040435
:1002800000F1FF3380F00A81A74240F20781644405
:10029000023840EA0640E41B00261DB1D44000238A
:1002A000C5E900433146BDE8F0878B4209D9002DEE
:1002B00000F0EF800026C5E9000130463146BDE878
:1002C000F087B3FA83F6002E4AD18B4202D38242E2
:1002D00000F2F980841A61EB030301209E46002D91
:1002E000E0D0C5E9004EDDE702B9FFDEB2FA82F2E6
:1002F000002A40F09280A1EB0C014FEA1C471FFA44
:100300008CFE0126200CB1FBF7F307FB131140EA2A
:1003100001410EFB03F0884208D91CEB010103F1F7
:10032000FF3802D2884200F2CB804346091AA4B2B9
:10033000B1FBF7F007FB101144EA01440EFB00FE8D
:10034000A64508D91CEB040400F1FF3102D2A645F2
:1003500000F2BB800846A4EB0E0440EA03409CE791
:10036000C6F12007B34022FA07FC4CEA030C20FA3E
:1003700007F401FA06F31C43F9404FEA1C4900FA5E
:1003800006F3B1FBF9F8200C1FFA8CFE09FB1811DB
:1003900040EA014108FB0EF0884202FA06F20BD94E
:1003A0001CEB010108F1FF3A80F08880884240F29E
:1003B0008580A8F102086144091AA4B2B1FBF9F0E2
:1003C00009FB101144EA014100FB0EFE8E4508D9DD
:1003D0001CEB010100F1FF346CD28E456AD9023862
:1003E000614440EA0840A0FB0294A1EB0E01A14247
:1003F000C846A64656D353D05DB1B3EB080261EBB5
:100400000E0101FA07F722FA06F3F1401F43C5E98E
:10041000007100263146BDE8F087C2F12003D840C4
:100420000CFA02FC21FA03F3914001434FEA1C4706
:100430001FFA8CFEB3FBF7F007FB10360B0C43EAF8
:10044000064300FB0EF69E4204FA02F408D91CEBA8
:10045000030300F1FF382FD29E422DD902386344A6
:100460009B1B89B2B3FBF7F607FB163341EA034146
:1004700006FB0EF38B4208D91CEB010106F1FF3895
:1004800016D28B4214D9023E6144C91A46EA00468C
:1004900038E72E46284605E70646E3E61846F8E61E
:1004A0004B45A9D2B9EB020864EB0C0E0138A3E767
:1004B0004646EAE7204694E74046D1E7D0467BE748
:1004C000023B614432E7304609E76444023842E7C0
:1004D000704700BF0000000000B599B04422002121
:1004E00006A80AF085F800234FF40070CDE9003328
:1004F000CDE90233049305F069FF08B172B6FEE757
:100500009FED177B8DED107B9FED177B8DED127BA3
:100510009FED177B02234FF48071102206A80693EB
:1005200016938DED147B09910A9204F0AFFE0346F9
:1005300008B172B6FEE79FED107B8DED007B9FED5D
:10054000107B042168468DED027B049305F086F94B
:1005500008B172B6FEE719B05DF804FBAFF3008096
:100560000200000002000000020000001400000071
:1005700007000000020000000F0000000300000060
:10058000000000000000000080B50024A8B004F0C6
:10059000B3FDFFF7A1FFCDE91A44CDE91C44A84DF6
:1005A0001E94EB6CA74843F00403EB64EB6C03F080
:1005B00004030193019BEB6C43F00103EB64EB6CD0
:1005C00003F001030293029BEB6C43F00203EB6424
:1005D000EB6C03F00203224603934FF46041039B4C
:1005E00005F072FE4FF400524FF4041396481C9429
:1005F0001AA9CDE91A2305F065FD4FF460420123E5
:10060000CDE91A238F48022202231AA9CDE91C231F
:1006100005F058FDAB6C43F00103AB64AB6C8B4D44
:100620000C9403F001030093342221461AA8CDE96B
:100630000D44009B09F0DCFF854B2B60002200235A
:10064000CDE91244CDE91444CDE91644C5E901448D
:100650002C8385F8204085F830406C6385F838405D
:100660002026012404274FF00208C5E90A23284662
:10067000C5E903646F61C5F81C8003F0AFFE08B1E3
:1006800072B6FEE70C900CA9284604F0B1FC814636
:1006900008B172B6FEE7284604F01AFD6D48CDF8A1
:1006A00070800823CDE91A037F231D930323209331
:1006B000402240231AA92846CDE91E79CDE92223FC
:1006C000ADF884908DF886908DF8909004F0C4F980
:1006D00008B172B6FEE7604A4FF487731AA928463C
:1006E000CDE91A2304F0B8F908B172B6FEE75B4A07
:1006F0004FF405731AA92846CDE91A2304F0ACF982
:1007000008B172B6FEE74CA3D3E90023CDE912236A
:1007100005227F23CDE9142312A9042200232846B1
:10072000CDE9162303F03EFF08B172B6FEE74C4A4E
:1007300028460C2312A9CDE9122303F033FF054606
:1007400008B172B6FEE7474F10900146CDE90C00A4
:10075000CDE90E00CDE91200CDE91400CDE9160077
:10076000CDE90500CDE909000490089018902C22ED
:100770001AA809F03DFF3C4B3B6040F6C4114FF412
:1007800080733846C7E90313BE607C617D60BD613C
:1007900005F052FF08B172B6FEE7384606F018F8C9
:1007A00008B172B6FEE7062210230CA93846CDE93F
:1007B0000C2306F099F808B172B6FEE70023702208
:1007C000CDE904232748002304A9069306F040FB43
:1007D00008B172B6FEE701200121CDE9080108AA9F
:1007E000012120480A9106F0C3FB024608B172B607
:1007F000FEE7602040F2E241CDE91201002400252D
:100800001848189212A9CDE91445CDE9164506F00D
:10081000EBF908B172B6FEE71248042212A906F0FD
:10082000E3F908B172B6FEE70E48082212A906F0F5
:10083000DBF9D8B172B6FEE72000F0140600000024
:100840000010024000040048000800480005002095
:100850000000045040002019000021430080F03EB9
:1008600000209036F4050020002C014040F6C31310
:100870007022CDE9122349480C2212A906F0B4F9DE
:10088000034608B172B6FEE74FF480504FF40051B2
:10089000CDE91E0103200021CDE920014FF00070B9
:1008A0000321CDE9220124934FF400624FF48063C9
:1008B0003A481AA9CDE91C45CDE91A2306F012FBE6
:1008C000044608B172B6FEE7344803F07DFC3448B4
:1008D000344B4FF4E112C0E900320C22C0E902446B
:1008E000C0E90442C0E90644C0E9084406F08CFEB1
:1008F000054608B172B6FEE700F076F82A460821F0
:10090000262005F0B7FD262005F0F2FD2A46082135
:10091000102005F0AFFD102005F0EAFD2A46092160
:10092000182005F0A7FD182005F0E2FD2A46052154
:10093000192005F09FFD192005F0DAFD2A46072150
:10094000122005F097FD122005F0D2FD164C2A4624
:100950000821282005F08EFD282005F0C9FD0FCCC8
:1009600012AE0FC694E8070086E80700294612A8D1
:1009700007F0B0FB0D4B0C3418600FCC1AAE0FC64D
:1009800094E8070086E8070029461AA807F0A2FBAA
:10099000074B186007F098FBFEE700BFF405002046
:1009A000400600200044004018A60008C8060020A9
:1009B000CC060020034B02689A4200D0704704F036
:1009C000B3BB00BF0010004072B6FEE7044B0360EB
:1009D00010B48023034C0C605DF8044B1360704727
:1009E000D0080020D006002008B5034800F076F8B3
:1009F000BDE8084000F008BD2409002008B504F057
:100A0000E1FF044BA3FB0030C009BDE8084005F03E
:100A10007DBD00BFD34D6210014B186801F06CBA68
:100A200024090020014B186801F098BA240900201D
:100A3000014B186801F058BA2409002002207047C1
:100A400038B5044604EB84031E4804EB430300EB73
:100A5000830001F0BFFA2622013804FB02F21A4B90
:100A6000C0B201284FF00001995003EB020C88BF7F
:100A70001032CCF80410CCF80C1088BF9950262105
:100A800001FB0433114A002552F82400C3F8165024
:100A9000C3F81A50C3F81E50294607F09DFE0C4BB0
:100AA000294653F8240007F097FE0A4B53F8240018
:100AB00008F0DAF9084B53F82400BDE8384000F09C
:100AC000AFBE00BF28090020EC1A0020E40300207C
:100AD000E0030020E8030020241B0020002800F091
:100AE00086802DE9F04F424BDFF85C91414E424F3A
:100AF000424DDFF858A185B04FF000080446404849
:100B000083F80080C9F8000009F0AAF83D4802F017
:100B100031FF07F015FF3C4807F04AFE3B4808F05C
:100B20003DFC3A4A3849306808F084F9384608F004
:100B300031FDD9F80030316800933A46344B3548DE
:100B400008F04EF8344807F033FE344807F030FE22
:100B5000334800F0D7FE284607F060FF314B32489B
:100B60001B68DD60C3F808A0304D00F0CBFE3048B4
:100B700007F0C8FD3946284607F0FAFD2D4B2E48F0
:100B80001D602E4B2E4D186007F0A0FF4046FFF76A
:100B900057FF4FF0010B30688AF824B008F0EEF9E7
:100BA000CAF81000306808F0E9F9C0F30F40316866
:100BB000D9F80030AAF814005246284601F0ECF8A3
:100BC0002846EF6001F00AF91E4BEB61306808F02F
:100BD000D1F942460146284601F0EEF8256003F0BF
:100BE00025FA034B83F800B005B0BDE8F08F7047DD
:100BF000121B0020E8030020A403002000000020B6
:100C0000C40000203C040020880000200C020020CA
:100C1000F8010020800100205C000020300000204E
:100C200094030020DC030020680300202000002043
:100C3000780300201C1B002068010020201B0020DE
:100C400028090020B0040020241B0020EC1A0020FA
:100C5000704700BF38B5044604EB84030D480E4DC1
:100C600004EB430300EB830001F0B4F9262303FBFC
:100C7000045595F824301BB90138C0B2012800D8BA
:100C800038BD064B53F8240008F04AF9E88328825F
:100C900038BD00BF28090020EC1A0020E80300201E
:100CA000014B1880704700BF141B0020034B1888AD
:100CB00080B2B0FA80F04009704700BF141B0020DA
:100CC000014B1880704700BF181B0020034B188889
:100CD00080B2B0FA80F04009704700BF181B0020B6
:100CE000F0B5C04CC04F83B000232046ADF80030B3
:100CF00001F070F969460546BC4808F04DFA064611
:100D0000386807F0E3FD204601F0F4F820B10A232B
:100D100084F8233003B0F0BD204601F0E9F878BB39
:100D200094F82330132BF5D801A252F823F000BF1A
:100D30001F0F0008150D0008150D0008150D0008FF
:100D4000870E0008150D0008550E0008150D000847
:100D5000350E0008150D0008810D00085B0F000816
:100D6000150D0008150D0008150D0008150D0008DB
:100D7000E50D0008AD0D0008150D00088B0D0008ED
:100D80000B2384F8233003B0F0BD94F82230052BF8
:100D900000F0EB80964807F09FFF0246002840F0E5
:100DA000F6809048102101F043F8B3E794F8223020
:100DB000052B00F0DA808F4D0121286800F034FD0A
:100DC0000028A7D094F82230032B00F03B8128683C
:100DD000002108F0F1FE1420FFF762FF102384F8D1
:100DE000233097E794F82230052B00F0BE80FFF700
:100DF0005DFF00288ED07F4E306808F023FE7E4BCA
:100E00007E49012283F824207D4B186808F028F8D9
:100E1000764808F09DFA0020FFF712FE6B1EDBB249
:100E2000022B34BF06230423306884F8233000F0FB
:100E3000F9FC6FE7FFF74AFF00283FF46BAF704BF8
:100E40006E49186808F00CF86C4808F095FB002310
:100E500063845FE794F82230052B00F086806148B8
:100E600000F0F2FF6B1EDBB2012B40F2DF800020AE
:100E7000FFF7F0FE002E7FF44DAF5A483246202196
:100E800000F0D6FF46E794F82230052B6DD0584885
:100E900007F022FF0246002840F0B8805148102198
:100EA00000F0C6FF55480DF1020108F0CBFB504899
:100EB00007F048FF00283FF42DAF0DF102014B4829
:100EC00008F0A6FA0546474801F0A4F841B24748A1
:100ED00008F04EFB4948294608F056FC002D3FF427
:100EE00019AF4248444E474D07F058FF014670681D
:100EF00000F0B4FE03462868019307F0E7FDB6F959
:100F000010102868002207F027FEBDF90410286899
:100F1000192207F021FE132384F82330FAE694F80F
:100F2000223003F0FD03012B7FF4F4AE6B1EDBB225
:100F3000012B06D92B4801F06DF801462C4807F02B
:100F400087FE2C4D286890F88110002968D100F0A8
:100F50006BFC112384F82330DCE694F82230022B5A
:100F60007FF4D8AE00236384D4E6224B186808F0DF
:100F700069FD0020FFF764FD386807F0C3FC4FF4FB
:100F80004870FFF79DFE082384F82330C2E61B4813
:100F900001A908F057FB0546184808F003FC002D8E
:100FA0004DD0154B1848B3F91060154D07F01EFCD5
:100FB00001B206FB01F1144807F00EFC0B4928684A
:100FC00007F04EFF0020FFF743FE0020FFF742FE30
:100FD000286807F0E1FF034800F036FF062384F895
:100FE000233097E628090020DC0300200C020020B3
:100FF00080010020241B0020EC1A0020A403002004
:10100000E8030020201B002088000020124B1868F5
:1010100007F086FF114BB3F9142018825A8241E77A
:101020000121A0F8601000F0FFFBD0E601A90C48F8
:1010300008F008FB0B4B186807F0A8FB6AE60028CD
:10104000AFD167E60020FFF7FBFC386807F05AFCD9
:10105000002363845EE600BFE8030020EC1A002052
:10106000A40300201C1B00201D4B1B78012B00D06B
:10107000704770B51B4C238893B1013B23801A4AFB
:1010800013889BB21BB11388013B9BB21380174A94
:1010900013889BB21BB11388013B9BB2138070BDB8
:1010A000134DFFF71DFE02F0C3FF294651F80C0B4C
:1010B00083689847686030B129460A2251F8080BC6
:1010C0000368984710B900232380D8E7284602F028
:1010D000F5FA2868EA894668A9680A23B047F2E762
:1010E000121B0020161B0020141B0020181B0020C0
:1010F0001804002008B5034B1B7803B908BDFFF79F
:10110000B3FF08BD121B00202DE9F047DFF88881EE
:10111000604C98F82330D4F81A0088B0132B05904F
:1011200000F0AB805C485D4F00F054FF5C4B8146A3
:10113000186807F097FE054607F030FE0646284679
:1011400007F034FE02A9386800F0DCF9029800F0DC
:101150000FFD3146039000F081FDB4F910100090AE
:1011600003B2C91A4F4B186807F06AFBBDF9023089
:10117000B4F91210C91A4C4B8246186807F060FB8C
:10118000B9F1010F034670D0ADF80630ADF804A0F8
:101190000199464807F074FA034628460FFA83F986
:1011A0001D14019307F002FE3146019800F09AFDEC
:1011B00001463868049100F0A7F9029B23600146BC
:1011C000039B049863600129009BA4F81690258373
:1011D000E360C4F81A0026843CD0354807F0B2FD1D
:1011E00062680692034633481C4607F041FA05A997
:1011F00003463148ADF81C3007F0D6FE2E4808F003
:1012000075F89CB198F8233003F0FD02042A16D03B
:10121000132B14D0294A2A48136890F82910013357
:101220001360E1B9002008B0BDE8F087224808F05B
:1012300083F998F8233003F0FD02042AE8D11E4810
:1012400007F0ACFD04A903461E48ADF8103008F0C5
:10125000A5F9DFE71048002200F0EAFDDAE709F01F
:1012600003F8002008B0BDE8F087174B186807F0B6
:1012700083FA0FFA80FA031486E7144D286807F002
:101280004FFC00287FF44EAF286807F027FC20822F
:1012900048E700BFEC1A002028090020241B00208A
:1012A000E8030020E4030020E00300201C000020ED
:1012B00080010020000000200C020020BC2800203B
:1012C000EC030020A40300201C1B0020201B002096
:1012D00070B5044682B0B8B1254D55F8200000F035
:1012E000F5FA244B04EB840204EB4202014603EBC3
:1012F0008200CA4392B2019000F09AFD019800F07A
:1013000063FEF0B902B070BD1B48194D00F0CCFB74
:1013100001461A4807F002FA0646286800F0D6FA95
:1013200006F00E0640EA060115488EB200F0BCFB3E
:101330000146144807F09CFB00F00E0131430D48B4
:10134000D7E755F8240000F06BFA0F4890F82930E1
:1013500053B92046FFF774FB0C4B53F8240002B03E
:10136000BDE8704007F0CEBA09F042F8F1E700BFDF
:10137000241B002028090020680300207803002097
:101380009403002000000020EC030020DC03002078
:1013900008B5064B1B78012B00D008BD0020FFF7D5
:1013A00097FFBDE8084000F0B7BB00BF121B00204C
:1013B00008B5054B186808F045FBBDE80840034830
:1013C0000022802100F034BD241B002028090020C9
:1013D00008B5012006F06CFDFFF78CFEF9E700BFB1
:1013E00008B5012006F064FDFFF7D2FFF9E700BF62
:1013F00008B5FFF71DFB18B9BDE80840FFF70CBBA7
:10140000BDE80840FFF70EBB30B44FF09042384BB8
:10141000D3614FF48071D1618CB0D361D3690B93E8
:101420004FF400714FF481330B98D361D161D361D4
:10143000D169304B0A914FF480504FF488310A9CA7
:10144000D961D861D961D96909914FF480604FF4AD
:101450008231099CD161D061D161D16908914FF489
:1014600080404FF4A031089CD961D861D961D96915
:1014700007914FF400504FF49031079CD961D86127
:10148000D961D96906914FF400404FF4C031069CF0
:10149000D961D861D961D96905914FF00110012551
:1014A0000599D861DD61D861D9690491049C12491C
:1014B000D9610224DC61D961DB690393039BD061AC
:1014C000D561D061D3690293029BD161D461D161AE
:1014D0000A4BD16901910A4A0198DA611021D96158
:1014E000DA61DB690093009B0CB030BC704700BF31
:1014F000000101000004004802000100000800484B
:10150000100001000368184730B5B0F872C0B0F899
:101510004E3083B00A1401910CFB02F209B2C2EB07
:10152000C27203FB01F101EB4203C1EB4201540023
:1015300003EBD37E01EBD1725D1C4FEA6E0E4FEAD6
:101540006202C0F294804D1C5FDBBEEB020E44BF12
:101550000EF57F3E0EF2FF3E0029B8BF01F57F3148
:101560004FF00104B8BF01F2FF31002BB8BF03F503
:101570007F3380F87C404FEA9C0C90F887400CEB5E
:10158000AE42B8BF03F2FF3302EBA141A2EBA3438B
:10159000002C40F09780A0F85810A0F85A20A0F82E
:1015A0005C30B0F8704022EAE27221EAE17123EA8D
:1015B000E37392B289B29BB2012CA0F85020A0F83C
:1015C0005210A0F854301BD1B0F96240002CB0F892
:1015D0007440CCBF1219121B92B2A0F85020B0F97F
:1015E0006420002AB0F96620CCBF0919091B002A23
:1015F00089B2CCBF1B191B1BA0F85210A0F85430A5
:10160000436903B0BDE830401847002C40F38C809C
:10161000B4EB020E44BF0EF57F3E0EF2FF3E0029F2
:10162000B8BF01F57F314FF00003B8BF01F2FF31C1
:1016300080F87C304FEA9C0C231EB8BF03F5FF33C3
:101640000CEBAE4290F87F4002EBA141B8BF03F231
:10165000FF13A1EB634324B990F88740002C00F0FE
:10166000D4806D4C84650024A0F85C4099E74D1C43
:10167000C0F28580002C2BDDBEEB040E44BF0EF5BE
:101680007F3E0EF2FF3E002B4FF00202B8BF03F583
:101690007F334FEA9C0C80F87C20B8BF03F2FF3305
:1016A0000CEBAE4290F88750A2EBA34303EB6441EE
:1016B000002D00F095804FF4003484650124A0F8DB
:1016C0005C406EE7022484650124A0F85C4068E772
:1016D000B4EB020E44BF0EF57F3E0EF2FF3E002932
:1016E000B8BF01F57F314FF00303B8BF01F2FF31FE
:1016F00080F87C304FEA9C0C231EB8BF03F5FF3303
:101700000CEBAE4290F8874002EBA141B8BF03F268
:10171000FF13A1EB6343002C70D04FF48034846539
:101720000224A0F85C403CE7BEEB040E44BF0EF57B
:101730007F3E0EF2FF3E002BB8BF03F57F334FF024
:101740000502B8BF03F2FF334FEA9C0C211EB8BF5D
:1017500001F5FF3180F87C2090F887400CEBAE4219
:10176000A2EBA343B8BF01F2FF1103EB6141002CD0
:101770003DD02A4C84650024A0F85C4011E7BEEB04
:10178000020E44BF0EF57F3E0EF2FF3E0029B8BFA9
:1017900001F57F314FF00404B8BF01F2FF31002B97
:1017A000B8BF03F57F3380F87C404FEA9C0C90F87B
:1017B00087400CEBAE42B8BF03F2FF3302EBA1410E
:1017C000A2EBA3432CB1012484650224A0F85C4061
:1017D000E7E6A0F85830A0F85A20A0F85C10E0E640
:1017E000A0F85810A0F85A30A0F85C20D9E6A0F86C
:1017F0005820A0F85A30A0F85C10D2E6A0F8583073
:10180000A0F85A10A0F85C20CBE6A0F85820A0F869
:101810005A10A0F85C30C4E602000100010002008A
:10182000436818478368184710B5044682B099B1D9
:10183000012902D0002002B010BDB0F860309BB189
:10184000013B9BB20191A0F86030002BF2D1C3683C
:10185000984701990846EEE7FFF7E2FF2046E36864
:101860009847012002B010BD084602B010BD00BF6D
:1018700090F885301BB990F87D30022B04D00123FD
:1018800080F884307A307047D0E90F2110B4436C6F
:10189000B0F848409462B0F84A40B0F84C208C62EE
:1018A0009A62012380F884305DF8044B7A307047E7
:1018B0004A6C03464FF0010C42F480624A647A306D
:1018C00083F883C083F885C0704700BF90F88330E9
:1018D000B3B1002380F883304221022390F88220A4
:1018E0001AB1002380F882300B4690F884202AB188
:1018F00043F4806300229BB280F88420184670472E
:101900004021EBE766490B6870B5002B30D090F8AA
:1019100004C01A7994451ED04C68002C00F0A380B6
:10192000227962454FF0FF032BD08C68002C00F029
:101930008680227962452AD0CC68002C00F088800D
:101940002279624500F08980032B88BFFF2340F293
:101950009880037370BD02681B689A421DD04C6862
:10196000002CDDD18C68002C00F090800123E0E792
:101970004C68002C00F0838090F804C02279624506
:10198000D3D1246802689442CFD1012306E02468B1
:1019900002689442D0D1022300E0002341F82300E2
:1019A0009168404C0025C90744F8335013D451685E
:1019B000042421F00401516014605168202421F0B6
:1019C000200151601460916821F0004121F03F0135
:1019D00041F001019160116B21F00F011163047955
:1019E000092C1ED804EB4405A10641EA0551012546
:1019F00005FA04F42143CC0D04F0040402F11405AB
:101A000086686259C1F304514FF0070E06FA01FCD3
:101A10000EFA01F122EA010141EA0C01615103735E
:101A200070BD03216FF01D0511FB04550121A1407C
:101A300041EA055141EA846141F00071DBE7042B82
:101A400017D9CC6814B1237963451CD00268A2E78A
:101A5000042B0268A2D90323A0E7026824689442F9
:101A60007FF472AFF7E701238C681CB190F804C0D3
:101A70005FE72346CC6824B190F804C060E72346B2
:101A8000F2E702688AE702680223E7E7CC68002CE5
:101A90003FF47BAF2379634508BF0123DED074E7B1
:101AA000501B0020281B0020027B1A4B53F82230C9
:101AB00019791A6809291FD801EB410C8B060120FE
:101AC00043EA0C5300FA01F10B43116B1B0D03F4B5
:101AD000F86321F4F8610B431363136C936823F0EC
:101AE000004323F03F0343F00403936013685B0754
:101AF000FCD5106C80B2704703206FF01D0C0123E1
:101B000010FB01C08B4043EA005343EA816343F07A
:101B10000073DAE7501B0020114B2DE9F0411C68DF
:101B20001CB1104D2B78012B01D0BDE8F08120466F
:101B3000277BFFF7B9FF0C4B188002232B700B4B50
:101B400053F837600146002EEFD003EBC703204661
:101B50005A6800232B703346BDE8F041184700BF98
:101B6000481B00204C1B00204E1B0020281B00207F
:101B700044F6E61103B213FB01F2C0F30F4010FB71
:101B800001F15042A0EB4100B0F1804F84B005DA82
:101B9000C11311F5004F0CDA094A01E047F6FF7254
:101BA0009BB2002063F30F0093B263F31F4004B0B5
:101BB000704703480AB28242B8BF0246F0E700BF4E
:101BC0000180FFFF00F50040C0F3891000F4407170
:101BD000B1F5007F82B028D04FF000031A4616D826
:101BE00061B3B1F5807F09D1C0B2C2431A49D2B204
:101BF00031F9103031F81220524212B29BB200205B
:101C000063F30F0092B262F31F4002B07047B1F568
:101C1000407FF3D11049C0B2C24331F81030D2B284
:101C20005B4231F912201BB2E8E7C0B2C3430A4954
:101C3000DBB231F9102031F91330DFE7C0B2C34312
:101C40000549DBB231F8102031F8133052425B42C3
:101C500012B21BB2D2E700BF68A6000830B585B04B
:101C60000346054608461C140193FFF7ABFF2DB24F
:101C70000FFA80FC031405FB0CF104FB1311B1F106
:101C8000804F05DACA1312F5004F22DA144901E039
:101C900047F6FF710CFB04F405FB0344B4F1804FDD
:101CA0004FEAE43204DA12F5004F0CDA0C4B01E093
:101CB00047F6FF738AB2002062F30F009BB263F312
:101CC0001F4005B030BD064813B28342B8BF03467B
:101CD000F0E7034912B29142B8BF1146DAE700BFFC
:101CE0000180FFFF30B585B00446054608460194E3
:101CF000FFF768FF241402142DB200B204FB02F3B4
:101D000005FB003300FB04F405FB1244C3F3CF339F
:101D1000002063F30F00C4F3CF3464F31F4005B019
:101D200030BD00BF031E35DDB3F5001F2BDD5A1398
:101D300002F500525210B2F5005F29D093FBF2F188
:101D40001144B2EB610F4FEA610024D093FBF0F233
:101D50000244B0EB620F4FEA62011CD093FBF1F238
:101D60000A44B1EB620F4FEA620014D093FBF0F229
:101D70000244B0EB620F4FEA62010CD093FBF1F02A
:101D8000084440107047DA1180325210802AD5D1B1
:101D9000104670470020704710B40024C0E9084482
:101DA0000474C0F8124080F82840C0E900125DF8C1
:101DB000044B8360704700BF012303744182028497
:101DC00080F82830704700BF4FF0020C40F201430A
:101DD00080F810C08182028403857047436810B583
:101DE000002283F8242004460321006807F04CF801
:101DF000032384F8293010BD436810B5012283F80D
:101E0000242004460221006807F03EF8022384F8EB
:101E1000293010BD38B543680125044683F82450A5
:101E20000068294607F030F884F8295038BD00BF13
:101E3000838CB0F826C00B4323EA020341EA0C016D
:101E40008384C184704700BF90F82830012B00D0F4
:101E5000704710B5037C013B0446042B2AD8DFE809
:101E600003F02D19110303004368012283F8242095
:101E7000028CB0F91210C06807F03EFC022384F80F
:101E8000283010BD4368012283F82420D0F81620A2
:101E90001A61F3E74368002283F8242000680421D4
:101EA00006F0F2FF228CB4F91410206806F0F0FF5F
:101EB0000028E3D1032384F8283010BD43680022B2
:101EC00083F824200068032106F0DEFF228CB4F999
:101ED0001210E06807F010FC228CB4F91210206890
:101EE00006F0D6FFE4E700BF90F82300704700BF7C
:101EF000C08C7047808C704710B50446FFF7F4FF24
:101F000008B1002010BD2046FFF7F2FF0028F8D1ED
:101F10002046FFF7EFFF0028F3D1012084F82200CC
:101F200084F8280010BD00BF10B50446FFF7DCFFA1
:101F300008B1012010BD2046FFF7DAFF0028F8D1D4
:101F40002046FFF7D7FF0028F3D10122A16884F8CB
:101F5000222084F8282081F8810010BD38B505467C
:101F6000FFF7C2FF50B1B0F10C04284618BF01249E
:101F7000FFF7BEFF40B10024204638BD0446284686
:101F8000FFF7B6FF0028F6D12846FFF7B3FF002879
:101F9000F1D1002CEFD0052385F82230ECE700BF0B
:101FA00010B50446FFF7A0FF0B2801D0002010BD9C
:101FB0002046FFF79FFF0028F8D1022384F8223043
:101FC000E084012010BD00BFC38C808C43EA004038
:101FD000704700BF90F82900704700BF70B582B00D
:101FE000044601910EB20D14FFF7F4FF022808D049
:101FF000032240F201432274E6822583238502B046
:1020000070BD6368E68225831E825D8284F82900A4
:1020100002B070BD037C022B05D0032B13D0012B23
:1020200009D001207047B0F91430002BACBF01205B
:102030004FF0FF307047B0F91230002BACBF0120D9
:102040004FF0FF307047B0F91630002BACBF0120C5
:102050004FF0FF30704700BFB0F91200704700BF6B
:10206000B0F91400704700BF008C7047006806F09C
:1020700053BF00BF08B5006806F0F4FEBDE8084095
:1020800006F090BE006806F0F7BE00BF4268106818
:10209000002382B262F30F03000C60F31F4382B08F
:1020A000184602B0704700BF42685068002382B2F1
:1020B00062F30F03000C60F31F4382B0184602B0B6
:1020C000704700BF4268D068002382B262F30F03FA
:1020D000000C60F31F4382B0184602B0704700BF87
:1020E00042681069002382B262F30F03000C60F3B0
:1020F0001F4382B0184602B0704700BF4268D2F852
:102100001600002382B262F30F03000C60F31F433A
:1021100082B0184602B070474268D2F81A00002315
:1021200082B262F30F03000C60F31F4382B01846C3
:1021300002B070474368B3F91E00704710B5D0E98C
:10214000000406F01BFFC0F30F432082638210BD22
:10215000034B1A68520644BF40221A60FEF7D4BFF0
:1021600000000450034B04486FF001021A6107F0AD
:10217000F3BE00BF002C0140C400002008B50C4B8A
:102180001A69120605D56FF080020A481A61FFF736
:102190006FFB07490B69DB0505D56FF480730548B4
:1021A0000B61FFF785FBBDE80840FEF75DBF00BF90
:1021B000002C0140C4000020054B1A68920200D494
:1021C00070474FF4001203485A6001F0D7BE00BFB9
:1021D000000002403C0400205A4BDA69520657D5F1
:1021E00059495A48D1F8802010B522F00102402404
:1021F000C1F880201C6201F021FD524BDA69100702
:1022000067D5504B9A68D40713D50E21504A1962EE
:1022100052E8003F23F0010342E800310029F7D1E2
:10222000484A52E8003F43F0100342E800310029D9
:10223000F7D1444AD369DB0659D51368D80656D579
:1022400052E8003F23F0100342E800310029F7D1A3
:102250003F4B53E8002F42F0010243E800210029E0
:10226000F7D153E8002F22F0400243E80021002973
:10227000F7D1344A928C53E8002F42F0400243E8F1
:1022800000210029F7D1BDE81040304801F0C4BE5C
:102290002C4BDA69110723D52A4B9A68D20713D53C
:1022A0000E212B4A196252E8003F23F0010342E855
:1022B00000310029F7D1234A52E8003F43F01003D0
:1022C00042E800310029F7D11E4AD369D9060FD45C
:1022D0007047DA69910794D4DB695A0791D4A8E76B
:1022E000DA699207D8D4DB695807D5D4ECE710BD7A
:1022F0001368DB0625D552E8003F23F0100342E8BF
:1023000000310029F7D1124B53E8002F42F00102AF
:1023100043E800210029F7D153E8002F22F04002C2
:1023200043E800210029F7D1064A928C53E8002F98
:1023300042F0400243E800210029F7D1034801F0B0
:102340006BBE704700440040000002403C04002087
:102350000844004008B5FFF72BF8FEE7044B5A6924
:10236000920400D470474FF400525A61FFF740B80E
:102370000004014010B50839BDF908C0202912D861
:10238000DFE801F015111111111111111D111111B9
:10239000111111112D1111111111111135111111ED
:1023A000111111114C0000221A80072010BD48287D
:1023B0004FF001020CBF042005201A8010BDB0F5BB
:1023C000656F4ED03CD9B0F5696F4AD041F65832AE
:1023D000904214BF0520042002221A8010BD182844
:1023E0004FF004020CBF104605201A8010BD0121D9
:1023F000198092F9000058B31FFA8CFC501804E0C1
:10240000198092F90040013014B301F1010E6145C9
:1024100002461FFA8EF1F3D3042010BD1288023257
:1024200092B21FFA8CFC62451A801CD8A828F3D0FF
:1024300012D820F04000282814BF0520042010BD29
:1024400020F04000B0F5B26F14BF05200420C3E7B0
:10245000002313700420E0E7E82814BF05200420BF
:1024600010BD0020B8E700221A800A2010BD00BF6E
:102470002DE9F04184B00839BDF928C096461C46C4
:10248000202912D8DFE801F01711111111111111D3
:1024900025111111111111116D11111111111111BC
:1024A00050111111111111117D00002323800720FB
:1024B00004B0BDE8F081882800F0028220F080009E
:1024C000482814BF052004200123238004B0BDE860
:1024D000F081B0F5196F158800F0888200F2A180B4
:1024E000B0F5347F00F07C8240F28880B0F58A6FCE
:1024F00000F064826DD9B0F5016F66D040F2CC80F7
:10250000B0F5156F40F0BD80B048FFF7E9FD0190D0
:10251000ADF80450AD480199FFF760FD002002239B
:10252000238004B0BDE8F0810121218092F90030C0
:10253000002B00F0B1811FFA8CF0531806E02180C7
:102540009EF900500133002D00F0A68101F1010C2D
:1025500088429E461FFA8CF1F1D8042004B0BDE8F1
:10256000F081982800F0BA8100F2A98020F04000A4
:10257000182814BF052004200423238004B0BDE8DC
:10258000F0811288931C9BB21FFA8CFC6345238058
:1025900000F29281B0F50A7F0EF1020100F0C981CC
:1025A00000F26E81B0F5D47F00F0B48140F25D811D
:1025B000B0F5F47F40F0AC818448BEF80620BEF947
:1025C0000210FFF701FC002072E7022304202380A1
:1025D000A7E7B0F5547F00F02182B0F5647F3BD1CE
:1025E0007B4801AA0DF1020106F094FF7848BDF97D
:1025F00002102AB206F096FF002090E7B0F5C87FDF
:1026000000F0E88140F2EE80B0F5047F00F0208217
:10261000B0F5247F4AD16F4829B206F0D1F80020E6
:102620007DE741F29053984200F0CE816DD841F29F
:102630009043984200F0BC8154D941F21053984223
:1026400000F0E08141F2505398420FD16148294691
:1026500006F0D4F8002062E7B0F5447F40F08C80AB
:102660005C4829B206F0DEF8002058E741F2D0437A
:10267000984240F081805848294606F0DBF8002057
:102680004DE779D8B0F50D6F9FD021D9B0F5116F16
:1026900014BF0520042042E7B0F5926F40F0BF80E0
:1026A0004E4829B206F08CF8002038E7B0F5E87FF4
:1026B00062D14B4829B206F085F800202FE7D828D0
:1026C00000F02481B0F58C7F14BF0520042053E76F
:1026D000B0F5056F3FF479AFB0F5096F14BF052071
:1026E00004201CE7B0F5656F00F0E4802AD9B0F54E
:1026F000696F00F0DF8041F2504398423CD1364888
:10270000294606F06DF8002009E741F6D00398420B
:1027100000F0488132D941F6D023984200F08C81F4
:1027200020D941F6583398423FF44FAF20F0400093
:1027300094BF41F6103341F69033984214BF052000
:102740000420ECE6B0F5396F3FF43FAF2FD9B0F578
:10275000456F3FF43AAF20D9B0F5496F14BF05205B
:102760000420DCE641F61013984251D11B4829465B
:1027700006F036F80020D2E60520D0E641F21063DC
:10278000984200F0458141F25063984236D1144896
:10279000294606F04FF80020C1E6B0F53D6F3FF442
:1027A00014AFB0F5416F14BF05200420B7E6B0F5B3
:1027B000256F3FF40AAF3ED9B0F5296F3FF405AF5E
:1027C000B0F5356F14BF05200420A8E628090020C5
:1027D0000C02002030000020880000204002002071
:1027E0005C000020D02800F03981B0F5887F34D11A
:1027F0009D4829B206F016F8002090E641F2D05329
:102800009842B9D19948294605F0EAFF002086E6AA
:1028100041F69023984214BF052004207FE6ABD3F5
:10282000B0F5F26F3FF4D1AE0FD9B0F5FA6F14BF27
:102830000520042073E6B0F51D6F3FF4C6AEB0F579
:10284000216F14BF0520042069E620F04000B0F598
:10285000B26F14BF0520042061E690288CD1824815
:1028600029B205F0ADFF002059E6A8283FF475AE67
:1028700017D9E82814BF0520042004B0BDE8F08172
:10288000B0F55A7F7BD0B0F5A56F41D1784804B040
:10289000BDE8F04107F0DABD00238EF800300420D7
:1028A0005CE620F04000282814BF0520042004B076
:1028B000BDE8F081002032E6002323800A20F7E5FE
:1028C0001378042B18D0032B67D0022B60D0012B78
:1028D00002D16848FFF79EFA0020F5E5B2F9003012
:1028E0006549644881FB0321A1EBE371002209B231
:1028F000FFF762FA00203FE65E48FFF71BFC00226C
:1029000001465C48FFF760FA0020DDE5042033E66D
:102910000520CDE5DEF802305749BEF8062081FBE0
:102920000301A1EBE371534809B2FFF745FA002018
:10293000BEE512F0070629D1D2B22F2A26D8D40834
:102940001BD0DFF834814D4F75463146B5F9022072
:10295000EB88ADF8083088FB0203A3EBE273ADF817
:102960000630013635F8083FADF8043001AA384684
:1029700006F0F2F9F1B28C42E8D8002098E5DEF8D2
:1029800002103C480191FFF729FBF6E70A208FE58A
:102990003848FFF731FA002096E53648FFF71EFA6F
:1029A000002091E53648294605F028FF0020B6E5CD
:1029B0002D48294605F022FF0020B0E5304829B215
:1029C00005F000FF0020AAE52E48294605F032FF59
:1029D0000020A4E5254829B205F0F2FE00209EE57E
:1029E000284829B205F0EEFE002098E52148FFF7BF
:1029F00077FB0190ADF806501E480199FFF7EEFAFB
:102A000000208CE51F48294605F0EAFE002086E5F7
:102A10001648294605F0F2FE002080E51A4801AA72
:102A20000DF1020106F076FD1748BDF9042029B228
:102A300006F078FD002072E514491548C5EBC53550
:102A4000A1FB053141F34F1105F09AFE002066E528
:102A5000064829B205F0E6FE002060E5024829B2EA
:102A600005F0B0FE00205AE5880000205C00002040
:102A7000EC03002028090020ABAAAA2A800100202C
:102A800040020020300000200C0200201F85EB5186
:102A90002000002010B5A1F1080CBDF908E0BCF140
:102AA000200F12D8DFE80CF01B11111111111111B8
:102AB00029111111111111112211111111111111DD
:102AC00037111111111111111300072010BD282801
:102AD0002DD012880232052092B21A8010BDBEF1AC
:102AE000000F22DD01221A80052010BDBEF1030F68
:102AF00019DD04221A80052010BDBEF1010F12DD80
:102B0000B0F5656F5CD0B0F5696F14BF052000208B
:102B100002221A8010BD20282DD0602811D000225A
:102B20001A80052010BD082010BD084610BD1FFAF0
:102B30008EFE0A21BEF10B0F118034D80C22082022
:102B4000CBE7204C94F900000121198080B11FFAD5
:102B50008EFEA44608E002F8010B1988013189B203
:102B600019801CF9010F18B18E45F4D8062010BD4C
:102B70000020107010BD144C94F900000121198040
:102B80000028F5D01FFA8EFEA44609E002F8010BDA
:102B90001988013189B219801CF9010F0028E7D08A
:102BA0007145F3D3E2E709494868D1F800C00989C3
:102BB000C2F80600C2F802C0518100200C228CE746
:102BC0000020A5E7B4A80008C4A8000848A9000888
:102BD0002DE9F04196B01D46A1F10803BDF970C082
:102BE0001446202B12D8DFE803F035111111111112
:102BF00011116E1111111111111148111111111131
:102C0000111164111111111111111500072016B0C5
:102C1000BDE8F081B0F5D47F04F1020300F0E38257
:102C200000F28A80E82800F0CE8276D8682800F08A
:102C3000C082A82840F0D2821FFA8CFC1022BCF17E
:102C4000110F228000F29282122308202B8016B0EE
:102C5000BDE8F081BCF1000F40F39582882800F0B8
:102C60009C82C82800F09382482800F09C820520AE
:102C700001232B8016B0BDE8F081BCF1030F40F3B7
:102C80003182D82800F0FE8200F21A82582800F023
:102C90000583982840F00C82A748FFF7F3F900EB72
:102CA000400040002060002004232B8016B0BDE8C7
:102CB000F081A02800F03682E02800F0178200237F
:102CC0002B800520A3E7BCF1010F40F30B82B0F588
:102CD0001D6F00F0168300F29880B0F58A6F00F047
:102CE00036836CD8B0F5047F00F02B837DD9B0F526
:102CF000447F00F01A8359D9B0F5547F49D18F48E9
:102D000013AA12A906F006FCBDF848302380002063
:102D100002232B8016B0BDE8F081B0F5947F40F01F
:102D20005D821FFA8CFC0C22BCF10D0F228000F298
:102D300011820E23082089E7B0F50A7F00F07C821B
:102D4000B0F55A7F12D1042323807B48FFF7C8F9DE
:102D50000346638078481293FFF7C2F92388C0F3D3
:102D60000F400233A0809BB200206FE7B0F5F47FE4
:102D700040F03482042323806F48FFF771F96080AC
:102D80006D48FFF771F92388A08002339BB20020C1
:102D90005CE7B0F5647F5CD1684813AA12A906F01D
:102DA000B9FBBDF84C3023800020B1E7B0F5247F9B
:102DB00045D1634805F008FD20800020A8E7B0F564
:102DC000056F00F0AC8240F22181B0F5116F00F088
:102DD0009E8240F21081B0F5156F40F0F5805648A4
:102DE000FFF77EF92080002092E7B0F5887F00F0A1
:102DF000E28240F24281B0F5C87F40F03481514810
:102E000005F0E2FC2080002082E741F290439842E6
:102E100000F0CB824FD8B0F53D6F00F0C0823CD9B6
:102E2000B0F5496F00F0B3821AD941F2504398428D
:102E30000ED1454805F0D2FC2080002068E7B0F5AF
:102E4000347F06D13E4805F0C3FC208000205FE7B8
:102E500001D905205CE7B0F5656F0CD1002057E77C
:102E6000B0F5416F10D1354806F040FBC0F30F407C
:102E7000208000204CE7B0F5696F4FF0020314BFCB
:102E8000052000202B8045E7B0F5456FE1D12B48A8
:102E900006F020FB208000203AE7B0F5296F00F013
:102EA0006E8233D9B0F5356F27D1244805F076FF0F
:102EB000208000202CE741F21063984200F05982F4
:102EC00048D941F61013984200F04D8229D941F6B5
:102ED000D0239842BDD11D4805F054FC00EB80037F
:102EE0001B4A03EB83039B0082FB03121A44DB178C
:102EF000C3EBA233238000200AE7B0F5396FA8D1D5
:102F00000E4805F08DFF2080002001E7B0F5216F0D
:102F100030D10948FFF7F2F8C0F30F4020800020BD
:102F2000F6E641F2506398422ED1064805F080FC47
:102F300020800020ECE600BF280900200C020020C1
:102F4000300000205C0000208800002020000020CD
:102F50000300018041F25053984200F0FE8129D9CC
:102F600041F2905398421AD1A74805F061FC2080A5
:102F70000020CDE6B0F5256F7FF46BAFA348FFF7D7
:102F8000CBF820800020C3E641F6D00398427FF4BE
:102F900060AF9F4805F02CFC20800020B8E641F28D
:102FA000D05398427FF455AF9A4805F017FC208023
:102FB0000020ADE641F2D043984211D1964805F089
:102FC00037FC20800020A3E6B0F5196F7FF441AFF5
:102FD0008E48FFF785F8C0F30F402080002097E669
:102FE00041F2105398427FF434AF874805F0F6FB66
:102FF000208000208CE6B0F5096F15D18348FFF7DB
:1030000053F8C0F30F402080002081E6B0F5BA6F7E
:1030100000F091811ED9B0F5FA6F0FD17B48FFF710
:1030200035F82080002073E6B0F50D6F7FF411AF06
:103030007648FFF747F82080002069E6B0F5016F79
:103040007FF407AF7148FFF721F8C0F30F402080ED
:1030500000205DE6B0F5926F17D16D4805F0B4FB26
:103060002080002054E6B0F5E87F7FF4F2AE694896
:1030700005F0AEFB208000204AE690280FD166487C
:1030800005F0A2FB2080002042E6B0F5B26F7FF48D
:10309000E0AE624805F0EEFA2080002038E6D02845
:1030A0007FF4D7AE5C4805F093FB208000202FE62C
:1030B00018286AD15548FEF787FF20600020F3E505
:1030C000B0F58C7F00F0E48041F6583398425CD133
:1030D000534B186805F01AFC8DED010A019B236023
:1030E0000020E1E5082016B0BDE8F0814D4B1A68DC
:1030F00001232B8002F1240192F924207AB11FFAD6
:103100008CFC08E004F8012B2B8801339BB22B8048
:1031100011F9012F1AB19C45F4D8062077E500205B
:10312000207074E5404A012311682B8091F900203A
:10313000002AF4D01FFA8CFC09E004F8012B2B883C
:1031400001339BB22B8011F9012F002AE7D09C4557
:10315000F3D8E2E7354A506814689168D268DA60BB
:1031600058601C60996000200E236FE5304A126899
:10317000506814689168D268DA6058601C60996081
:103180000020122362E5084641E505208CE5294828
:1031900005F0F0FD207000206AE51C48FEF71AFFDC
:1031A0002070002064E51948FEF79EFE2070002084
:1031B0005EE51FFA8CFC3C22BCF13D0F228079D8E1
:1031C0003E23082042E51FFA8CFC0E22BCF10F0FB3
:1031D000228000F289801023082037E523880233FB
:1031E00005209BB232E50948FEF736FF00EB4000B0
:1031F0004300C4F802300548FEF736FF0623E0809E
:1032000023800020082321E5300000202809002029
:10321000400200205C000020880000200000002008
:10322000DC030020C8040020CC040020B0040020EF
:10323000C0040020800100201FFA8CFC2823BCF170
:10324000290F238033D9DFF8A08127460026F1B269
:1032500013AA404605F092FDBDF94E3003EB43033F
:103260005B00C7F802300136BDF85030FB80052EF8
:10327000BDF84C3027F8083FE9D1238802330020FD
:103280009BB2E3E44F4806F05BF9206000200BE5B9
:103290004C4806F059F92060002005E54A48FEF741
:1032A000E9FE00EB4000400020600020FCE42A23FF
:1032B0000820CBE4454A126802F1300714685068D0
:1032C0009168D668DE601032BA421C60586099601E
:1032D00003F11003F2D11068516892689A60186087
:1032E000596000203E23B1E4394A126810685168E1
:1032F00094689C601860596092899A81002010231C
:10330000A4E43148FEF7FAFE2080002000E52E48B4
:10331000FEF7D8FEC0F30F4020800020F8E42A48D2
:10332000FEF7C2FE20800020F2E42A4805F07CFA75
:1033300020800020ECE4284805F008FA20800020D6
:10334000E6E4264805F070FA20800020E0E42448F6
:1033500005F03EFA20800020DAE41E4805F048FA25
:1033600020800020D4E41E4805F038FA2080002098
:10337000CEE41A4805F03CFA20800020C8E4124848
:10338000FEF7CAFEC0F30F4020800020C0E40D48C5
:1033900006F0A0F8C0F30F4020800020B8E40948F0
:1033A00006F0A4F820800020B2E40E4805F020FAD0
:1033B00020800020ACE40B4805F036FA2080002085
:1033C000A6E400BF0C02002028090020C804002049
:1033D000C404002030000020780300205C0000209E
:1033E00040020020880000208001002000F038000A
:1033F0000838C0B210289ABF014B185C00207047F3
:1034000098A8000800F03803102B03D0484B0B603D
:103410000520704720F00700B0F51D6F83B25CD027
:1034200010D8B3F50D6F5ED026D8B3F5056F60D018
:1034300016D9B3F5096FE9D13E4B5B68063300201E
:103440000B607047B3F5356F59D028D9B3F5456F88
:1034500059D0B3F5496F1BD1374B0B600020704733
:10346000B3F5FA6F5FD0B3F5016FCFD1314B5B6825
:10347000023300200B607047B3F5156F47D0B3F5EA
:10348000196F18D12B4B5B68123300200B6070470B
:10349000B3F5396FBAD1294B0B6000207047B3F5F3
:1034A000256F3AD0B3F5296F0ED1224B5B681C33E0
:1034B00000200B607047B3F5116FA7D11D4B5B68FF
:1034C0000E3300200B607047B3F5216F9ED1194B6E
:1034D0005B68183300200B607047164B5B6816332F
:1034E00000200B607047134B5B680C3300200B60AF
:1034F0007047104B5B68043300200B607047104B23
:103500000B60002070470F4B0B6000207047094B89
:103510005B68103300200B607047064B5B681A3302
:1035200000200B607047034B5B680B600020704706
:10353000601B0020280900207E02002018020020C5
:10354000100200207C0200202DE9F04FB0F90C4061
:10355000324B89B04FF0000A06935445304BADF81A
:1035600016A0D0E901C607460793A0F80EA03BDDE0
:1035700006EB0108CDF80CA0C6F101090CF102051B
:10358000BCF800C05FFA8CF1023C01F0070B0DF1B2
:10359000200A1CF0060F0FFA84FE0DF116032A46CE
:1035A000A4B22CF007000AEB8B0B01F0380122D1FA
:1035B000CDF800E05BF808BCD847BDF8162006EB54
:1035C0000903DBB2A41A012B24B205EB020C1AD0BA
:1035D000464514D006F8010BFB890133FB8140B945
:1035E000002CCBDC039838B90020F88109B0BDE885
:1035F000F08F07280CD1012009B0BDE8F08F08201A
:1036000009B0BDE8F08F002CE2D10028ECD0F3E740
:103610000A28F0D001230393E2E700BF75230008D6
:10362000712400082DE9F04786B00023ADF80E3074
:10363000C381B0F80C801F4B04931F4BD0F804904B
:1036400086680593B8F1000F23D007460DB24C46AB
:1036500034F802CB5FFA8CF101F0070E0DF1180A75
:103660001CF0060F32462CF007000DF10E030AEB9A
:103670008E0E01F038010CD100955EF808ACD047F1
:10368000A8EB040319FA83F39BB230B106B0BDE88E
:10369000F087012006B0BDE8F087BDF80EC0FA89BA
:1036A000A5EB0C0562446644FA812DB2002BCFD104
:1036B000ECE700BF952A0008D12B0008F0B545685B
:1036C0002B8803F47F4223F0070CB2F5807F83B090
:1036D00004461FFA8CFC53D0013B03F0070303EBB5
:1036E00083025B4F03EB4203023507EB830723683A
:1036F000456080899A890238013A80B20026BCF17F
:10370000380F91B2A081E68112B22AD8BCF1380FED
:103710001ED8DFE80CF0631D1D1D1D1D1D1D6B1D3A
:103720001D1D1D1D1D1D701D1D1D1D1D1D1D751D1E
:103730001D1D1D1D1D1D4C1D1D1D1D1D1D1D521D55
:103740001D1D1D1D1D1D471D1D1D1D1D1D1D5D005C
:1037500000230220A268D054E3890133E38103B03F
:10376000F0BDBCF1680F5FD0BCF5807F6DD0BCF1BF
:10377000480FEDD13846FEF7E1FCE3893046E9E732
:10378000808923680238CCF3C40C9A8980B2023550
:103790000023BCF1010FA0816560E38135D90023CE
:1037A0000D20D7E73846FEF79FFB002845D0384666
:1037B000FEF7D4FBE3890020CCE73846FEF794FB04
:1037C0000628F7D13846FEF751FCE3890020C1E70F
:1037D0003846FEF7E5FBE3890020BBE7A368042138
:1037E0000122E1811A70E3890020B3E72046FFF748
:1037F000ABFEE389AEE72046FFF714FFE389A9E7B4
:103800003846FEF791FBE389A4E7013A12B2114B67
:1038100053F82C60002EC2D0A3680093294604F10F
:103820000E03B047E38995E7A3680093294604F1A6
:103830000E03FDF703F9E3898CE73846FEF774FBC6
:1038400080F00100E389C0B284E7B446DFE700BF3F
:10385000280900207C1A00200268402370B41362FB
:1038600052E8003F43F0400342E800310029F7D11D
:1038700002F1080151E8003F43F0800341E80034C1
:10388000002CF7D10169174E8368745C45682344A6
:1038900002F128019960C368F15C402313626B5800
:1038A00043F002036B5002F1080151E8003F43F07E
:1038B000010341E80034002CF7D1C368F05C0544F3
:1038C00002F124014023A96002F10801136251E8CA
:1038D000003F43F0400341E80032002AF7D170BCBA
:1038E000704700BFACA8000830B403690C4D846871
:1038F000EB5CE058C00704EB030C0ED4CCF80C10C2
:10390000DCF80410090C09041143CCF80410E25847
:1039100001200243E25030BC7047002030BC7047A9
:10392000ACA8000830B4C3680B4D4468E85C255867
:1039300004EB000C25F001052550CCF80C10DCF848
:1039400004301B0C1B041A43CCF80420235843F00A
:103950000103235030BC7047ACA800080268102354
:10396000136252E8003F43F0100342E8003100299F
:10397000F7D1704770B504464069E36C984700235F
:10398000656DA4F8643084F86030606904F11C014E
:103990002B460422BDE87040184700BF10B40B78D6
:1039A0000A7991F802C01E4CDB0143EA02134A78FF
:1039B00043EA0223CA7843EA8C3343EA4253DAB239
:1039C00042F0050223F07041A25C82EA1122D2B2D9
:1039D000A25C82EA1142D2B2A25C124C82EA11626B
:1039E000A25C43EA027343F00503036272B6836C80
:1039F0004BB162B690F8243013B9022380F824301A
:103A00005DF8044B704700F12001032380F8243057
:103A1000816462B60422836D5DF8044B40691847E7
:103A200064A9000854A9000830B54FEA411C90F879
:103A300060E090F863401E4D4CEA011C0EF0010E50
:103A40004CEA023C4CEA8E1343EACE1304F00F0416
:103A500043EA0423DAB2174C42F0060243F00601AF
:103A6000A25C82EA1322D2B2A25C82EA1342D2B2F0
:103A7000A25C82EA1363EB5C41EA0373036272B6F1
:103A8000836C3BB162B690F8243013B9022380F8FE
:103A9000243030BD00F12001032380F824308164FC
:103AA00062B60422836D4069BDE83040184700BF0C
:103AB00054A9000864A900080A2A10B403460BD0D0
:103AC00090F83620012A21D990F83E20012A11D9F8
:103AD00000205DF8044B704790F82E20012AF7D89B
:103AE000826A012404320A6083F82E4020465DF881
:103AF000044B7047826B012003F1380483F83E00C9
:103B000004321C645DF8044B0A607047026B0120AC
:103B100003F1300483F8360004321C645DF8044B72
:103B20000A60704770B590F86440022C02D0022100
:103B3000084670BD43EA021441F8044C90F86C400A
:103B4000012C04D14FF6CA648C52023292B20A2B75
:103B500003D1047C94B30024047451F8044C354D13
:103B6000E6B2C4F3072EAE5D8EEA060E043215F8F7
:103B70000E60C4F3074E8EEA060EA1F1040C15F890
:103B80000EE0C4F303658EEA050E2B4D15F80E50BA
:103B900044EA057492B241F8044C72B6816CE1B10A
:103BA00062B6092B0DD00A2B2ED0002B32D190F803
:103BB000241069BB022380F82430B9E701210846AC
:103BC00070BD036C446C19688C4514BF032100213F
:103BD0006CB3022098719A80AAE7092B22D00A2B95
:103BE0004FF003010BBF00F1280300F1200380F820
:103BF0002E1080F82410836462B6836D406961469C
:103C000098470021084670BD90F82E30012B03D054
:103C100003218DE700218BE7022380F82E30828577
:103C2000002185E7036C032199718364E4E7436411
:103C3000CFE700BF64A9000854A9000810B590F8A8
:103C40002430032B044613D0826C0021917190F82C
:103C50002E20022A13D0022B1DD100F12001836DEA
:103C60008164042240699847032384F8243010BDFE
:103C700090F82E300022022B80F824200BD104F182
:103C80002800A36DA064A28DA16A606998470323F0
:103C900084F82E3010BD72B6636CCBB10322A364DE
:103CA0009A7119689A886069A36D984794F83630BC
:103CB000022B07D094F83E30022B03D0002363641C
:103CC00062B610BD626C630068339B1A6364F7E7E9
:103CD000A364F5E72DE9F84390F86130C269002547
:103CE00004460D8093B190F8646080F86150012E15
:103CF00054D0022E3ED0002E33D0636D6069042272
:103D000004F11C0198472846BDE8F88390F86250FA
:103D1000002DF8D02B0443EA0525C5F30723954968
:103D2000954883F00903CA5C45F00F0382EA154504
:103D30004A5D825C43EA0273236272B6A36C002B75
:103D40003AD062B694F8243013B9022384F82430B0
:103D500000256069236D84F8625098472846BDE8C5
:103D6000F883836E052B00F09580062B00F0D7803A
:103D70003546C2E7836E052B5FD0062B00F0D68058
:103D8000092BBAD190F86030B0F85C20A5690133F6
:103D9000012084F8603020740A80AEE7836E052B22
:103DA00016D0062BA9D1C2F30F323146FFF73CFEE5
:103DB000022384F86430A0E704F12001032384F88F
:103DC0002430A16462B60422A36D60699847BFE7FE
:103DD000037F407F94F86D1094F86C5094F86E60F7
:103DE00094F86F7000F03F00DB098142C2F3863C1B
:103DF00028BF0146AB429846C2F3465E28BFA8469C
:103E0000B44584F86C80E04628BFB046BE4584F8CF
:103E10006E80F04628BFB846AB4284F86D1084F837
:103E20006F8040F28880002384F8643004F16C01D4
:103E30002046FFF7B3FD00255FE7037F407F94F83E
:103E40006D1094F86C6094F86EC094F86F7000F088
:103E50003F00DB09814228BF0146C2F3863EB342E0
:103E60009946C2F3465828BFB146E64584F86C909F
:103E7000F14628BFE146B84584F86E90C14628BF98
:103E8000B946B34284F86D1084F86F9064D984F811
:103E90006450CBE7657F007F94F86D3094F86CC078
:103EA00094F86EE094F86F8005F03F05C009AB42CE
:103EB000C2F3863728BF2B4660450146C2F34659F8
:103EC00028BF6146774584F86C10394628BF714693
:103ED000C1454E4628BF4646604584F86D3084F89B
:103EE0006E1084F86F60A1D89D429FD877459DD809
:103EF000C1459BD894F87000C2F30212904295D14C
:103F00004A1C0133D2B2DBB25201B6015B0101217E
:103F1000A281E681A4F85E3084F8641086E7C2F3DB
:103F20000F323146FFF780FD3546E6E6427F01213C
:103F3000FFF77AFDE1E688423FF675AFB4453FF6FC
:103F400072AFBE453FF66FAF94F87030C2F3021205
:103F500093427FF468AF69E7884298D8E64596D8DF
:103F6000B84594D894F87050C2F30212AB1A5D426F
:103F70005D418CE764A9000854A9000810B590F8C9
:103F8000653004463BB1012B04D1002280F8652046
:103F900080F8613010BDC1691E4ACBB2D35C83EAA0
:103FA0001123DBB2D35C83EA1143DBB2D35C83EA37
:103FB0001161535C5BB9037F03F00F03062B83662B
:103FC00009D8042B1ED8012384F8623010BD0423C5
:103FD00080F8623010BD092BF5D1838B1B09A0F846
:103FE0005C307BB1B0F85E209A420FD390F86C2021
:103FF0008169406903EB4202636D9847012384F8AD
:10400000653010BD012384F8613010BD022380F8B3
:10401000623010BD64A900080146002280F86520C6
:10402000436D406904221C31184700BF704700BF30
:10403000704700BF014802F0EDBC00BF641B0020C8
:104040000E4B10B4186E40F0010018661C6E83B061
:1040500004F001040094009C9C6D44F080549C6525
:104060009B6D03F080530193019B00220F216FF0A1
:10407000010003B05DF8044B02F0FCB900100240EF
:10408000D0B50446ACB0002188220AA8CDE90411BD
:10409000CDE90611089106F0ABFA2B4B22689A4243
:1040A00001D02CB0D0BD4FF480424FF040530AA84D
:1040B0000A92289301F0E6FD002841D1234BDA6CE7
:1040C00042F40052DA64DA6C02F400520092009A70
:1040D000DA6C42F00102DA64DA6C02F00102019259
:1040E000019ADA6C42F00402DA64DA6C02F004023B
:1040F0000292029ADA6C42F00202DA64DB6C03F09C
:1041000002030024039303260B2704A94FF09040D9
:10411000039B0694CDE9046701F0D4FF10220B2322
:1041200004A90B480694CDE9042301F0CBFF09480C
:10413000069404A9CDE9046701F0C4FF2CB0D0BDFA
:10414000FCF742FCBAE700BF000004500010024038
:10415000000800480004004810B5184A016888B0FB
:1041600000239142CDE90233CDE90433069301D017
:1041700008B010BD03F1804303F5043301241A6E27
:104180000F4842F400621A661A6E02F4006200924E
:10419000009ADA6C42F00202DA64DB6C049403F0F9
:1041A000020301934FF4805202A90223CDE90223B6
:1041B0000694019B01F086FF08B010BD002C014061
:1041C000000400480000000000B51B4A016889B0E7
:1041D00000239142CDE90233CDE90433069302D0A6
:1041E00009B05DF804FB03F1804303F504339FED50
:1041F0000E7BDA6C42F00102DA64DB6C8DED027B3F
:104200009FED0B7B03F00103019302A901234FF003
:1042100090408DED047B019A069301F053FF09B0A5
:104220005DF804FBAFF3008000070000020000000F
:104230000200000002000000002C014070B504469E
:10424000AAB00021882208A8CDE90211CDE9041105
:10425000069106F0CDF9324B22689A4201D02AB07D
:1042600070BD0222042308A80892179301F00AFDEA
:1042700000284CD12B4B2C4E9A6D42F400329A659B
:104280009A6D02F400320092009ADA6C42F0010258
:10429000DA64DB6C03F0010301930C220223CDE905
:1042A00002230022019B0023CDE9042302A9072356
:1042B0004FF09040069301F005FF1C4902220023B5
:1042C000C6E9001230468022C6E90233C6E904235B
:1042D000C6E90633336201F0FDFFF0B9144D15490C
:1042E000666702220023C5E90012284610218022B9
:1042F000C5E90213C5E90533C5E90733B4622A618C
:1043000001F0E8FF30B92567AC622AB070BDFCF758
:104310005BFBAFE7FCF758FBF5E7FCF755FBDDE788
:104320000044004000100240640500206C00024080
:10433000AC05002080000240234B70B59A6D42F01E
:1043400010029A659B6D88B003F010030293054636
:1043500001A903A8029B01F05FFB069BD3B901F002
:1043600037FB034619481A4C1A49A0FB03239B0C40
:10437000013B0022C4E90013204640F2E7332261EA
:10438000A260A261E36002F057F9064630B1304600
:1043900008B070BD01F01CFB4300E3E7204602F0CB
:1043A000D7F906460028F2D1362002F0A1F80F2DE9
:1043B00001D90126EBE732462946362002F05AF8A9
:1043C000054B1D60E3E700BF0010024083DE1B4386
:1043D000641B002000100040D404002030B583B0DE
:1043E00000230193002800F0BA80456D0446002D9B
:1043F00000F0A280226893689D0005D5936823F0A1
:10440000204323F03F0393609368D80019D45E4B98
:104410005E481B6891689B09A0FB030321F01041D3
:104420009B0921F03F0101335B0041F08051916015
:104430000193019B2BB1019B013B0193019B002B3D
:10444000F9D19368D90069D4636D43F010036365B3
:10445000A36D01200343A365936813F0040F636DFC
:1044600063D1DB0661D4636D23F4817343F00203EF
:1044700063659368DD0710D44549464B89689B689E
:104480000B43454989680B43D90706D443496568FE
:104490008B6823F47C132B438B60E568636B94F883
:1044A00020102B43A5682B43657E012943EA453341
:1044B00043EA01434ED0A16A21B1E56A01F470716B
:1044C00029430B43D568364929400B43D360936891
:1044D0001B0714D4D16894F83030257E21F4804134
:1044E0005B0021F0020143EA85330B43D36094F86B
:1044F0003830012B36D0136923F00103136123698F
:10450000012B1FD0136B23F00F031363636D23F094
:10451000030343F00103636503B030BD936813F0F8
:10452000040F4FF00000636D9BD0636D012043F0DA
:104530001003636503B030BDFFF7A2FDA56584F8E5
:10454000505057E7116BE36921F00F01013B0B431A
:104550001363DBE7616A013943EA4143ABE70120BA
:1045600003B030BD1169E36B256C21F4FF6121F0CC
:1045700004012B430B43616C0B43A16C0B4343F0D1
:1045800001031361BBE700BFD8040020632D3E0583
:1045900000000450000104500002045000030450C5
:1045A00007C0F0FFF0B590F8502083B00346012A11
:1045B0004FF00000019000F03A811C68012083F860
:1045C0005000A26812F0040C58D14868052840F247
:1045D000958000F01F054FF01F0E82090EFA05FEB0
:1045E00002F00C0C6FEA0E0E0A6804F13000C2F300
:1045F0008462AA4050F80C5005EA0E0E42EA0E0200
:1046000040F80C20A268560746D5A2680A68A06840
:10461000C507164613D4CF68B448D4F8B05007F095
:10462000180C20FA0CF0C2F3120C104025EA0C050D
:104630002843C4F8B000AE48874200F0A780AD4AD6
:10464000164227D0AC4AAD4990688E4200F0E07522
:104650001DD0AB498E4200F0ED80AA498E4219D19F
:1046600010F4800016D1A8498C4213D1916821F032
:10467000E071294341F48001916003E05A6D42F0FA
:1046800020025A65002283F8502003B0F0BD0002DA
:1046900040F1F6800020F5E7A268120765D40868AB
:1046A0008A68C60D06F0040604F11405C0F3045030
:1046B00002FA00F74FF0070C72590CFA00F022EAE8
:1046C00000023A4372510E69E268042E1DD004F1D3
:1046D0006007C2F3C10257F826C08C4D50000A682B
:1046E0000CEA050502F0F84215434A6982402A4364
:1046F00042F0004247F826200A6888E7023803287B
:1047000035D96FF4F86E06256EE70A68206E206EC4
:10471000C2F31205C0F38460002D40F0FF80C2F3A5
:104720008465A84200F07381606E666E04F16000DB
:10473000C6F3846604F16407AE4200F056818668D1
:10474000866800F10807C6F38466AE4200F03B813C
:10475000C668C66800F10C07C6F3846085427FF422
:1047600056AF3A6822F000423A600A684FE7684A5A
:1047700052F820504FF01F0EAA0905F01F050EFA3F
:1047800005FE02F00C0C6FEA0E0E2DE7BCF1000FD7
:1047900065D092FAA2F0002800F0F180B0FA80F023
:1047A000013000F01F00092840F2E98092FAA2F0DF
:1047B000002800F04881B0FA80F00130800600F057
:1047C000F84092FAA2F5002D00F04281B5FA85F585
:1047D000013505F01F05012606FA05F5284392FA72
:1047E000A2F2002A00F03281B2FA82F2013202F023
:1047F0001F056FF01D06032212FB0562120542F031
:1048000000720243D60D886806F0040604F1140510
:10481000C2F3045200FA02F74FF0070C70590CFA79
:1048200002F220EA02023A4372510E6807E70220C0
:1048300003B0F0BDC1013FF52DAF334A944204D01F
:1048400002F5007294427FF425AF2B498A6822F06A
:10485000E0722A4342F0807200208A6012E7920ED2
:10486000501C00F01F06092E32D885060122B240E6
:1048700005F0F845154306EB460212052A43C1E749
:10488000A2F54072944204D002F5007294427FF483
:1048900001AF19491F488A6822F0E072154345F4B8
:1048A00000058D6002681C499209A1FB0212920961
:1048B000013202EB420292000192019A002A3FF477
:1048C000E9AE019A013A0192019A002AF9D1E1E692
:1048D00006EB460280061E3A012500F0F84012055C
:1048E00005FA06F642F0007230438AE7FFFF070040
:1048F00000007F400000088000030450000052C701
:10490000000084CB010000800000045000F0FF0391
:1049100064AA0008D8040020632D3E0592FAA2F58F
:104920001DB1B5FA85F5A84271D0606E666E04F1CE
:104930006000C6F3846604F1640792FAA2F51DB123
:10494000B5FA85F5AE4250D08568866800F1080753
:10495000C6F3846692FAA2F51DB1B5FA85F5AE42AA
:1049600031D0C568C56800F10C07C5F3846092FAC0
:10497000A2F5002D3FF44BAEB5FA85F5EEE692FABE
:10498000A2F5002D59D0B5FA85F50135AD0605F033
:10499000F84592FAA2F000284DD0B0FA80F001302C
:1049A00000F01F00012606FA00F0054392FAA2F279
:1049B000002A45D0B2FA82F0013000F01F0000EB6F
:1049C000400002055AE73A6822F000423A60C268A5
:1049D0000A6800F10C07C068C2F31205C0F38460D6
:1049E000002DC4D1C2F38465B8E63A6822F00042D3
:1049F0003A6082680A688668C2F3120500F1080707
:104A0000C6F38466002DA5D1C2F384659DE6226EAF
:104A1000204622F0004240F8602F626E0A68666EFF
:104A2000C2F3120504F16407C6F38466002D84D135
:104A3000C2F3846580E60220B7E74FF08065A8E7FF
:104A40004FF440121AE74FF08060BAE6014AD8E608
:104A50000225C3E6000050FEF0B590F8503083B058
:104A60000022012B0192026900F05881012380F895
:104A70005030E2B18B69012B19D0046E002C40F04C
:104A8000D0800A6A002A00F007825D1E4C6A02F09C
:104A90003C032B432343D1E90024056604F01F05A2
:104AA000C2F38464AC401C43C465036805E04B68F2
:104AB000082B00F0A1800A6803689C6827070DD4C2
:104AC0004C7F002C40F090800C7FDD688E7F2405A9
:104AD00025F4401544EA46542C43DC609C6814F0ED
:104AE000040437D09C6800249D68EE0714D4CF6876
:104AF000B14DD3F8B06007F0180C25FA0CF5C2F3ED
:104B0000120E154026EA0E0C45EA0C05C3F8B0500B
:104B1000AA4DAF4200F0BD80A9490A4214D0A94E67
:104B2000A94DB168AA4201F0E07700F0CD80A74D11
:104B3000AA4200F08C80A64DAA4205D14A0203D4B5
:104B4000A44A934200F0FC81002380F850302046B4
:104B500003B0F0BD9D6815F00805C5D10C6A002CA6
:104B600040F089804C7F012CDC680CBF44F000745D
:104B700024F00074DC60002491F82850012D00F02E
:104B800033811D6925F002051D61D70D8D6807F081
:104B9000040703F11406C2F3045E05FA0EFC0722B3
:104BA000BD5902FA0EF225EA020242EA0C02BA519B
:104BB0000F69DA68042F00F0B98003F1600CC2F3CA
:104BC000C1025CF827E0844E55000A680EEA06062A
:104BD00002F0F84216434A69AA40324342F00042CA
:104BE0004CF827200A687FE7DC688D7F24F44014A6
:104BF00044EA4554DC6071E70B6A0A68002B00F058
:104C000091804C6A03F03C03950C05F4F85523435E
:104C10001D430368714EDC6C34402C43DC64C56575
:104C20004BE70A684B68C2F3846503F01F039D409D
:104C3000C36D013C1D4304660368C565002C7FF409
:104C40003CAFDC6C654E34402543DD6435E7C9017B
:104C50003FF57AAF5F4A934204D002F50072934267
:104C60007FF472AF574A936823F0E0731F4347F015
:104C70008077976068E74C6A002C3FF473AF4C7FF5
:104C8000012C00F058812C46DD6825F00075DD60B0
:104C900072E7BEF1000F40F0B280920E551C05F095
:104CA0001F0CBCF1090F40F216810CEB4C02AD0653
:104CB0001E3A012605F0F845120506FA0CFC42F0F2
:104CC000007245EA0C05D0E00D023FF53DAF414AC8
:104CD000934204D002F5007293427FF435AF394A13
:104CE000936823F0E0731F4347F400073C4B976041
:104CF0001B683C4A9B09A2FB03239B0903EB43036C
:104D00009B0018330193019B002B3FF41DAF019BC7
:104D1000013B0193019B002BF9D115E702242046AA
:104D200003B0F0BD950C05F4F85572E71A6E0A68E9
:104D30001D6EC2F31206C5F38465002E00F0AF802D
:104D400092FAA2F626B1B6FA86F6B54200F00081D4
:104D50005D6E5F6E03F16005C7F3846703F1640C59
:104D600092FAA2F626B1B6FA86F6B74200F00581AD
:104D7000AE68AF6805F1080CC7F3846792FAA2F633
:104D800026B1B6FA86F6B74200F00C81EE68EF68FD
:104D90000C35C7F3846792FAA2F6002E3FF4A4AE56
:104DA000B6FA86F6BE427FF49FAE2A6822F0004231
:104DB0002A600A6898E600BFFFFF070000007F40F6
:104DC0000000088000030450000052C7000084CB9C
:104DD000010000800000045000F0FF030020088262
:104DE000D8040020632D3E05D1E90B571E693D43D1
:104DF00026F4FF76354345F002051D61C5E692FABB
:104E0000A2F5002D73D0B5FA85F5013505F01F0523
:104E1000092D6CD992FAA2F5002D00F0D980B5FACF
:104E200085F50135AD0605F0F84592FAA2F6002E9B
:104E300000F0CC80B6FA86F6013606F01F06012790
:104E400007FA06F6354392FAA2F2002A00F0C38070
:104E5000B2FA82F2013202F01F066FF01D07032240
:104E600012FB0672120542F000722A43D70D8D68BC
:104E700007F0040703F11406C2F3045205FA02FC1A
:104E80004FF0070EBD590EFA02F225EA020242EA7D
:104E90000C02BA510A683FE6013B1D46FBE5C2F32E
:104EA0008466B54254D05D6E5F6E03F16005C7F352
:104EB000846703F1640CB7425FD0AF68AF6805F157
:104EC000080CC7F38467B7426CD0EF68EF680C3505
:104ED000C7F3846766E7AE06012202FA0CF206F019
:104EE000F84616430CEB4C0212053243BEE792FA29
:104EF000A2F6002E76D0B6FA86F60136B60606F091
:104F0000F84692FAA2F5002D6AD0B5FA85F501357A
:104F100005F01F05012707FA05F52E4392FAA2F2C4
:104F2000002A5AD0B2FA82F5013505F01F0505EBCB
:104F300045052A05D9E7456D45F0200545651BE681
:104F4000B36823F0E0733B4343F48003B360FBE5B5
:104F50001A6E1D4622F0004245F8602F5A6E0A680C
:104F60005F6EC2F31206C7F3846703F1640C002E70
:104F70007FF4F6AEC2F384669DE7DCF8002022F0F1
:104F80000042CCF80020AA680A68AF68C2F3120693
:104F9000C7F3846705F1080C002E7FF4EFAEC2F36F
:104FA000846690E7DCF8002022F00042CCF8002074
:104FB000EA680A68EF68C2F312060C35C7F3846723
:104FC000002E7FF4E8AEC2F38466EBE6022639E7F2
:104FD0004FF0806529E7054A47E74FF4401284E720
:104FE00002259AE74FF080668BE700BF000050FE75
:104FF000F0B490F850200E68012A9AB054D00346BD
:105000002F4D1C6800220120AC42169283F85000FC
:10501000179208D0596D83F8502041F0200159654E
:105020001AB0F0BC7047274A906840070BD5A268B9
:105030005A6D42F0200201205A65002283F8502068
:105040001AB0F0BC7047A0684507F1D41E4DE6B118
:10505000A8684F6893F830C020F46040384340EAB5
:105060004C30A860A4689068184A926820431043A6
:1050700010F0010016D18A681643AA6822F4716202
:1050800022F00F021643AE60D7E7A9680F4E21F455
:105090006041A960A1689068B2680843104310F0AD
:1050A000010005D00020C8E702201AB0F0BC70470C
:1050B000AA6822F4716222F00F02AA60BDE700BF65
:1050C000000004500001045000030450000204508A
:1050D00003689A68520702D59B6801207047986858
:1050E00010F00800F9D1DA6822F0004222F4001230
:1050F00042F00042DA6070470A4A136843F4807352
:1051000010B50320136001F0A3F90020FFF714F994
:1051100010B10124204610BD0446FEF791FF204641
:1051200010BD00BF00200240034A044B11681B78E9
:105130000B441360704700BFB01B0020D004002058
:10514000014B1868704700BFB01B002030B5204DE0
:10515000AB6DDB0083B004461CD501F02FF9B0F530
:10516000007F29D0802C13D82FD0A4F17004B4FA7A
:1051700084F4640917490B6823F0070323430B6089
:10518000086800F00700001B18BF012003B030BD05
:105190000324EFE7AB6D43F08053AB65AB6D03F0D9
:1051A00080530193019B01F009F9AB6DB0F5007FCD
:1051B00023F08053AB65D5D1802C04D9A02C8CBFB3
:1051C00002240124D6E70024D4E70224D2E700BF5A
:1051D0000010024000200240284A9368D26813F071
:1051E0000C0308D00C2B38D0042B34D0082B2448C7
:1051F00018BF00207047214A1168090754BFD2F830
:10520000942012681F4954BFC2F30322C2F3031251
:1052100051F8220003B30C2B2DD1184BDB6803F09F
:105220000303022B25D0164A032B08BF1046134B4D
:10523000D968DA68DB68C3F34163C2F30622C1F3BD
:105240000211013302FB00F001315B00B0FBF1F011
:10525000B0FBF3F070470C48704702F00302012ADC
:10526000C9D0064BDB6803F00303022B4FF00000AC
:10527000D9D10548DBE70020704700BF001002408D
:1052800000127A0020AB00080024F400002800F08F
:105290004A822DE9F043A84A03689568D668044617
:1052A000D80683B005F00C0506F003062ED5002DB8
:1052B00000F003810C2D00F0FD80A3699E4F002BB0
:1052C00000F0D7813B6843F001033B60FFF738FFF4
:1052D000804606E0FFF734FFA0EB0800022800F24A
:1052E000D9813B689B07F5D53B6843F008033B60D9
:1052F0003B68226A23F0F00313433B607B68E2695A
:1053000023F47F4343EA02237B602368D90700F13B
:10531000A680990723D5042D00F09A810C2D00F06A
:105320009481E368844E002B00F0CF81336843F40E
:1053300080733360FFF704FF074605E0FFF700FFC7
:10534000C01B022800F2A68133685B05F6D573689E
:10535000226923F0F85343EA026373602368190754
:1053600019D56369744E002B00F05B81D6F8943038
:1053700043F00103C6F89430FFF7E2FE074605E06C
:10538000FFF7DEFEC01B022800F28481D6F89430BD
:105390009A07F5D523685F073ED5674B9A6DD6000F
:1053A00000F191819A6D42F080529A659B6D03F0F5
:1053B00080530193019B0126604F3B68D80540F163
:1053C000CC81A368012B00F09281052B00F0F081C5
:1053D000594FD7F8902022F00102C7F89020D7F853
:1053E000902022F00402C7F89020002B40F0868124
:1053F000FFF7A6FE41F28839804606E0FFF7A0FEDF
:10540000A0EB0800484500F24581D7F890309B0793
:10541000F4D4002E40F0B381A36A002B00F0F0809A
:10542000022B00F09C800C2D00F09580424C2368EC
:1054300023F080732360FFF783FE054605E0FFF746
:105440007FFE401B022800F22581236813F00073C1
:10545000F5D1E1683A4A0A401846E260D1E0082DE9
:1054600000F0D5800C2D00F0CF806368B3F5803F4D
:1054700000F01481B3F5A02F00F08D812E4F3A6813
:1054800022F480323A603A6822F480223A60002B9B
:1054900040F00981FFF754FE804606E0FFF750FE1A
:1054A000A0EB0800642800F2F5803B689803F5D46F
:1054B00023682EE7012E7FF400AF1F4B1B6899076E
:1054C00046D41D4B206A1A68120756BFD3F8943091
:1054D0001B681B0903F0F003984200F22681164B6B
:1054E0001A6842F008021A601A6822F0F0020243B9
:1054F0001A605A68E16922F47F4242EA01225A6046
:10550000002D00F04281FFF767FE0B4B0D4A9B68B0
:10551000C3F30313D35C0C4A03F01F0320FA03F315
:1055200010680A4A1360FEF707FF002869D1236854
:10553000D9077FF5EEAE92E7001002400070004000
:10554000FCFFEEFE08AB0008D4040020D8040020C5
:10555000A369002BB5D1012003B0BDE8F0839B4EB9
:10556000E26AF36803F00301914200F033810C2DED
:10557000F1D0964D2B685F01EDD42B68DE00EAD4A4
:105580002B6823F080732B60FFF7DAFD064604E0FA
:10559000FFF7D6FD801B02287CD82B689801F7D432
:1055A000E9688B4BE26A894E0B401343D4E90C2126
:1055B00043EA0123D4E90E01013A43EA0213226CC3
:1055C0000009490843EA40430139520843EA41537C
:1055D000013A43EA4263EB602B6843F080732B602F
:1055E000EB6843F08073EB60FFF7AAFD044604E02C
:1055F000FFF7A6FD001B02284CD833689901F7D5A8
:10560000002003B0BDE8F083032E7FF42EAF6F4A75
:10561000126892037FF57DAE6268002A7FF479AE4E
:1056200099E7D6F8943023F00103C6F89430FFF7D9
:1056300087FD074604E0FFF783FDC01B022829D839
:10564000D6F894309B07F6D4A4E6022E7FF469AE18
:105650005E4A1268520503D5E268002A3FF47BAF28
:105660005A4920694A6822F0F85242EA00624A60C8
:1056700075E63B6823F001033B60FFF761FD804660
:105680003B6898077FF553AFFFF75AFDA0EB080082
:105690000228F5D9032003B0BDE8F0834B4A136814
:1056A00043F480331360FFF74BFDDFF8208107469A
:1056B00004E0FFF745FDC01B6428EBD8D8F80030A4
:1056C0009B03F6D5F4E6002676E6336823F4807370
:1056D0003360FFF735FD074604E0FFF731FDC01BDF
:1056E0000228D7D833685805F7D4236837E6374AF5
:1056F000D2F8903043F00103C2F89030FFF720FD5C
:10570000DFF8C880074641F2883904E0FFF718FD4A
:10571000C01B4845BED8D8F890309A07F6D5002E61
:105720003FF47AAE2BE001207047FFF70FFD002811
:105730007FF411AF254B1A6842F008021A601A680C
:10574000216A22F0F0020A431A605A68E16922F4E1
:105750007F4242EA01225A60D5E63B6843F48073F7
:105760003B60FFF7EDFC80463B68D9053FF529AE6D
:10577000FFF7E6FCA0EB08000228F5D98AE7134AF8
:10578000936D23F08053936546E6FFF7DFFC002816
:105790003FF4B9AEDFE603F18043A3F53C331A686A
:1057A00042F480221A601A6842F480321A607AE762
:1057B000064BD3F8902042F00402C3F89020D3F8AF
:1057C000902042F00102C3F8902097E700100240B9
:1057D0008C809DF9216B03F070020139B2EB011F3F
:1057E0007FF4C5AE616B03F4FE42B2EB012F7FF490
:1057F000BEAEA26B073A03F4003118BF01229142FA
:105800007FF4B5AEE26B520803F4C001013AB1EB8C
:10581000425F7FF4ACAE226C520803F0C063013AE1
:10582000B3EB426F7FF4A3AE33689A013FF5E8AE65
:10583000336843F080733360F36843F08073F36040
:10584000FFF77EFC044605E0FFF77AFC001B022808
:105850003FF620AF33689B01F6D5D1E6002800F073
:105860009F80534A136803F007038B422DE9F041F0
:105870000D4604460CD2136823F007030B43136054
:10588000136803F007038B4202D00120BDE8F081CA
:1058900023689E0771D54748A168826802F0F0022C
:1058A000914204D9826822F0F0020A438260DA074A
:1058B00026D562683F4B032A1B6865D0022A6CD04C
:1058C000002A71D19B07E0D53A4EB36823F0030359
:1058D0001343B360FFF734FC41F28838074604E015
:1058E000FFF72EFCC01B40455CD8B368626803F02C
:1058F0000C03B3EB820FF3D123689E0706D5A16892
:105900002C48826802F0F0028A4240D828490A688E
:1059100002F00702AA4209D90A6822F007022A43C4
:105920000A600A6802F00702AA42AED15D0706D5F6
:105930002049E0688A6822F4E06202438A6018071E
:1059400007D51C4A2169936823F4605343EAC103D5
:105950009360FFF741FC174A174C92681749C2F34E
:1059600003120346A25C164802F01F02D340BDE8B2
:10597000F04100680B60FEF7DFBCD907C6D562684E
:105980000C4B032A1B6899D198019DD47DE782684E
:1059900022F0F00211438160B8E7990394D474E7D0
:1059A00001207047032071E75F057FF56EAF8BE73D
:1059B000002002400010024008AB0008D80400207C
:1059C000D4040020014B1868704700BFD8040020A1
:1059D000054B064A9B680649C3F302230868D35C5B
:1059E00003F01F03D84070470010024018AB0008B6
:1059F000D8040020054B064A9B680649C3F3C2231E
:105A00000868D35C03F01F03D840704700100240C1
:105A100018AB0008D80400200E4B0F2202609A68D1
:105A200002F0030242609A6802F0F00282609A6813
:105A300002F4E062C2609B68DB0810B403F4E06328
:105A4000054C036123685DF8044B03F007030B600A
:105A5000704700BF0010024000200240F8B5474BDD
:105A6000DA68920704460F4607D0DA68016802F048
:105A700003028A424CD00120F8BD0068022858D0A9
:105A800003284FD00128F6D11B689B07F4D53B4A69
:105A9000D36823F0730318436368013B40EA0310A3
:105AA000D060364D2B6823F080632B60FFF748FBF6
:105AB000064604E0FFF744FB831B022B3DD82B680E
:105AC0001A01F7D4002F3AD12B69D4E9021223F43A
:105AD0001F3323F4407343EA0123120943EA42438C
